:020000040800F2
:10000000580E0020C1030008BD030008BD0300080E
:10001000BD030008BD030008BD0300080000000088
:10002000000000000000000000000000BD03000808
:10003000BD03000800000000BD030008BD03000868
:10004000BD030008BD030008BD030008BD03000890
:10005000BD030008BD030008BD030008BD03000880
:10006000BD030008BD030008BD030008BD03000870
:10007000BD030008BD030008BD030008BD03000860
:10008000BD030008BD030008BD0300080000000018
:10009000000000000000000000000000BD03000898
:1000A000BD030008BD030008BD030008BD03000830
:1000B000A5210008F5010008BD030008BD030008E4
:1000C000BD030008BD030008BD030008BD03000810
:1000D000BD03000835210008BD0300086D2100089C
:1000E000BD030008BD030008BD03000800000000B8
:1000F0000000000000000000000000000000000000
:1001000000000000000000000000000000000000EF
:100110000000000000000000BD030008BD0300084F
:100120005FF808F130B5012185B01A4D022004F0C6
:10013000E3FA0021022004F0FBFA002405232846FC
:1001400001A9ADF80430ADF80640ADF80840ADF8AF
:100150000A408DF80C4000F05FF82846012100F0BD
:10016000D9F801221146284600F0C2F801231D22C9
:1001700068468DF800208DF802308DF803308DF838
:10018000014004F0DDFE2146284600F099F805B054
:1001900030BD00BF0004004010B5044600210D48EA
:1001A00000F08EF821460B4800F0A6F8002109481F
:1001B00000F0A0F80121074800F082F8064A002369
:1001C00013701378002BFCD000210248BDE81040CA
:1001D00000F076B8000400407806002048B110B561
:1001E000044600214FF47A70FFF7D6FF013CF8D1A6
:1001F00010BD704708B50121054800F07FF830B107
:100200000121034800F086F8024B01221A7008BD54
:100210000004004078060020264A038890429BB2E2
:1002200012D002F5006290420ED0B0F1804F0BD098
:10023000A2F59832904207D002F58062904203D036
:1002400002F58062904203D14A8823F07003134381
:10025000194A904226D002F58062904222D0CA8884
:1002600070B423F44073134C8E880D889BB21343F3
:10027000A0420380868505850ED0104B98420BD096
:1002800003F54063984207D003F58063984203D09A
:1002900003F58063984201D10B7A038601238382A0
:1002A00070BC704703808B8883850B88038501238E
:1002B00083827047002C0140001000400034014050
:1002C000038829B923F001031B041B0C038070472A
:1002D0009BB243F001030380704700BF83899BB248
:1002E0001AB923EA0101818170471943818170475E
:1002F000FFF7F4BF8184704781857047038A828944
:1003000011EA030092B203D0114214BF0120002071
:10031000704700BFC94389B201827047421E12F87C
:10032000013F4FF6FF70B3B180EA0320082310F4B9
:10033000004F4FEA400018BF80F4815003F1FF33B3
:1003400018BF80F0010013F0FF0380B2EFD112F864
:10035000013F002BE8D1704710B4154A1378EBB970
:10036000144B197D134C4A1CD2B2042A43F82100C5
:1003700084BF002323750F4B98BF227503F114002F
:10038000002253F8041B83420A44FAD10A4BD017C7
:1003900083FB023210BCC0EB62007047054B0021AA
:1003A000186058609860D86018611170D9E700BF74
:1003B000000000205003002067666666FEE700BF6D
:1003C0000E4A0F4B9A420DD2D0430E4918440B46A9
:1003D00020F003000430084453F8041B834242F821
:1003E000041BF9D1084809494FF000028842B8BF00
:1003F00040F8042BFADB02F0DBBD00BF0000002058
:100400005003002014AF000850030020580A0020B9
:1004100010B504464021084804F09AFB0028F9D0A2
:100420002146054804F08CFB4021034804F090FB72
:100430000028F9D010BD00BF0048004038B505467F
:10044000007838B100240134A4B2FFF7E1FF285D41
:100450000028F8D138BD00BF0A2838B517D00546A6
:10046000174C94F8C830E054FFF7D2FF082D94F8E9
:10047000C83004D13BB1013B84F8C83038BDC52B2E
:100480000AD80D2D08D0013384F8C83038BD0C4C83
:1004900094F8C830C52B11D90A20FFF7B9FF94F89A
:1004A000C83000252344064906485D7006F07AFFEF
:1004B000054B012284F8C8501A7038BD38BD00BF02
:1004C00068030020F80600206806002070B51A496D
:1004D00004461A4806F046FF58B9194D04464F2005
:1004E0000134A4B2FFF794FF285D0028F8D1012061
:1004F00070BD1449114806F035FF50B9104D04463F
:100500004F200134A4B2FFF783FF285D0028F8D103
:1005100070BD0D49094806F025FF0028EED00B4EAE
:1005200000254F200135ADB2FFF772FF705D002846
:10053000F8D1204670BD00BF28A700087C06002027
:1005400064990008E0A500087099000874990008F3
:10055000012838B50AD00B4D00244F200134A4B235
:10056000FFF756FF285D0028F8D138BD064D00245E
:100570004F200134A4B2FFF74BFF285D0028F8D1CB
:1005800038BD00BF9C990008949900082DE9F04FF0
:100590001B481C4903780022202B89B00A7000F008
:1005A000A286002B00F0C8850D2B00F0A086044623
:1005B0000DF1030101F8013F14F8013F0132202B36
:1005C00000F0D885002B00F0B8850D2B00F0D98500
:1005D000182AEFD1037E0021202B8DF81C1005D1A5
:1005E000811811F8013F0132202BFAD0002B00F0C6
:1005F0008D860D2B00F0CA85034C0244002109E0D2
:10060000F8060020680600207B0600200D2B08D08D
:10061000772906D004F8013F12F8013F0131002B81
:10062000F4D1A44B00225A5401A8A34906F09AFE23
:10063000002800F06D83A14901A806F093FE002870
:1006400000F066839E4901A806F08CFE002840F069
:100650007B859C4D04460A200134A4B2FFF7D8FEE6
:10066000285D0028F8D1984D04464220FFF7D0FEBF
:10067000601C84B2285D0028F8D1944F0446387875
:10068000FFF766FF924E4C252846FFF7C1FE601C1F
:1006900084B2355D002DF7D18E4B864C1878FFF76C
:1006A00057FF204697F8D0208B4906F037FE207878
:1006B00030B10135ADB2FFF7ABFE605D0028F8D177
:1006C000D7F8C82085497B4806F028FE2078002509
:1006D00030B10135ADB2FFF79BFE605D0028F8D167
:1006E000D7F8CC207E49734806F018FE2078002504
:1006F00030B10135ADB2FFF78BFE605D0028F8D157
:10070000784E002552200135ADB2FFF781FE705DB5
:100710000028F8D10546744EB878FFF719FF522328
:100720001846FFF775FE681C85B2735D002BF7D184
:1007300097F8910040B11D466C4EFFF769FE6B1CA7
:100740009DB2705D0028F8D17B68694A6949A2FBB7
:1007500003325848920906F0E1FD2078002530B1B7
:100760000135ADB2FFF754FE605D0028F8D1BA68DC
:100770006149504806F0D2FD2078002530B101359E
:10078000ADB2FFF745FE605D0028F8D15B4E002555
:1007900052200135ADB2FFF73BFE705D0028F8D165
:1007A0003B7B0546012B00F08885022B00F09085ED
:1007B000032B00F06885524E3120FFF729FE681C9C
:1007C00085B2705D0028F8D17A7B4E49394806F031
:1007D000A5FD2078002530B10135ADB2FFF718FE38
:1007E000605D0028F8D1BA7B4749324806F096FD93
:1007F0002078002530B10135ADB2FFF709FE605D0C
:100800000028F8D1414E0025542301351846ADB2D9
:10081000FFF7FEFD735D002BF7D1F87B3C4E1D46C4
:10082000FFF796FE41231846FFF7F2FD6B1C9DB2C1
:10083000735D002BF7D1B87C364E1D46FFF788FE5E
:1008400053231846FFF7E4FD6B1C9DB2735D002B2C
:10085000F7D1387C304E1D46FFF77AFE4323184609
:10086000FFF7D6FD6B1C9DB2735D002BF7D1787C32
:100870002A4E1D46FFF76CFE42231846FFF7C8FDBF
:100880006B1C9DB2735D002BF7D1F87C244E1D4686
:10089000FFF75EFE53231846FFF7BAFD6B1C9DB2AF
:1008A000735D002BF7D1387D1E4E1D46FFF750FEBD
:1008B000532339E07C060020A4990008AC99000875
:1008C0005CA2000864A2000880A2000804000020C6
:1008D0008CA200085C08002094A20008A0A20008D6
:1008E000BCA20008D8A20008E0A2000895000020E1
:1008F000D34D6210F0A2000804A300081CA3000856
:1009000054A3000830A300085CA3000874A30008E7
:1009100084A3000890A3000898A30008A4A30008DB
:10092000B8A30008CCA300081846FFF771FD6B1CA4
:100930009DB2735D002BF7D1787DAF4E1D46FFF75A
:1009400007FE4120FFF764FD6B1C9DB2705D00281F
:10095000F8D10546A94EF87DFFF7FAFD4123184668
:10096000FFF756FD681C85B2735D002BF7D197F831
:10097000870040B11D46A24EFFF74AFD6B1C9DB299
:10098000705D0028F8D197F8C4209E499E4806F073
:10099000C5FC2078002530B10135ADB2FFF738FD38
:1009A000605D0028F8D1994E002552230135184684
:1009B000ADB2FFF72DFD735D002BF7D197F8E40082
:1009C00040B11D46924EFFF723FD6B1C9DB2705D3A
:1009D0000028F8D18F4E4FF000080A2508F10108D1
:1009E00028461FFA88F8FFF713FD16F80850002D67
:1009F000F4D1D7F8D820884902EB8202520082480D
:100A000006F08CFC207830B10135ADB2FFF700FD67
:100A1000605D0028F8D1DFF82882002553230135D6
:100A20001846ADB2FFF7F4FC18F80530002BF6D1EC
:100A300097F8BF0050B11D46DFF80882FFF7E8FCC9
:100A40006B1C9DB218F805000028F7D13A7E734957
:100A50006D4806F063FC2078002530B10135ADB259
:100A6000FFF7D6FC605D0028F8D1DFF8DC810025B7
:100A7000532301351846ADB2FFF7CAFC18F805300C
:100A8000002BF6D1787EDFF8C4811D46FFF760FDAC
:100A90004D231846FFF7BCFC6B1C9DB218F80530BF
:100AA000002BF6D1F87E9846FFF752FDDFF8A091B3
:100AB00054252846FFF7ACFC08F101031FFA83F820
:100AC00019F80850002DF4D1B87EFFF741FD7A7F68
:100AD00053494D4806F022FC207830B10135ADB2C3
:100AE000FFF796FC605D0028F8D1DFF868810025EB
:100AF000542301351846ADB2FFF78AFC18F80530CB
:100B0000002BF6D1B87F50B11D46DFF84C81FFF7BE
:100B10007FFC6B1C9DB218F805000028F7D100255A
:100B20000A200135ADB2FFF773FC705D0028F8D1E3
:100B300005463C4E41231846FFF76AFC681C85B207
:100B4000735D002BF7D197F8DC00374E1D46FFF799
:100B5000FFFC57231846FFF75BFC6B1C9DB2735DCF
:100B6000002BF7D197F88200304E1D46FFF7F0FCBE
:100B70004C231846FFF74CFC6B1C9DB2735D002B99
:100B8000F7D197F883002A4E1D46FFF7E1FC43207A
:100B9000FFF73EFC6B1C9DB2705D0028F8D1054646
:100BA000244E97F88400FFF7D3FC43231846FFF741
:100BB0002FFC681C85B2735D002BF7D197F8A1005C
:100BC00040B11D461C4EFFF723FC6B1C9DB2705DAF
:100BD0000028F8D197F8852018490B4806F09EFBAD
:100BE00020780025002839D00135ADB2FFF710FC80
:100BF000605D0028F8D131E0DCA30008E4A3000820
:100C00008B000020F4A300087C060020FCA3000851
:100C1000E8000020E49E000804A4000820A40008C6
:100C20005CA4000880A400088CA4000894A4000818
:100C30009CA40008A4A40008A5000020B4A40008F7
:100C400014A40008C300002034A4000848A400082D
:100C500050A4000874A400082200002097F8862001
:100C60002549264806F05AFB2078002530B1013589
:100C7000ADB2FFF7CDFB605D0028F8D1204E002516
:100C8000492301351846ADB2FFF7C2FB735D002B57
:100C9000F7D1B87D1E46FFF75BFCDFF870804E256C
:100CA0002846FFF7B5FB731C9EB218F80650002DBE
:100CB000F6D197F8D100FFF74BFCD7F8D430642277
:100CC00002FB03F20F490D4806F028FB207830B1F3
:100CD0000135ADB2FFF79CFB605D0028F8D10A4DED
:100CE000002463200134A4B2FFF792FB285D0028A2
:100CF000F8D109B0BDE8F08FCCA400087C06002034
:100D0000E0A40008F0A4000868990008E8A400081E
:100D1000A64D04460A200134A4B2FFF779FB285DF2
:100D20000028F8D1A24D04464220FFF771FB601C59
:100D300084B2285D0028F8D19E4D04464C20FFF770
:100D400067FB601C84B2285D0028F8D19A4D0446E8
:100D50005020FFF75DFB601C84B2285D0028F8D1AD
:100D6000964D04464120FFF753FB601C84B2285D7A
:100D70000028F8D1924D04465220FFF749FB601C31
:100D800084B2285D0028F8D18E4D04464120FFF73B
:100D90003FFB601C84B2285D0028F8D18A4D0446D0
:100DA0005220FFF735FB601C84B2285D0028F8D183
:100DB000864D04464320FFF72BFB601C84B2285D60
:100DC0000028F8D1824D04465220FFF721FB601C19
:100DD00084B2285D0028F8D17E4D04464820FFF7F4
:100DE00017FB601C84B2285D0028F8D17A4D0446B8
:100DF0004220FFF70DFB601C84B2285D0028F8D16B
:100E0000764D04464420FFF703FB601C84B2285D46
:100E10000028F8D1724D04465320FFF7F9FA601C00
:100E200084B2285D0028F8D16E4D04465320FFF7A8
:100E3000EFFA601C84B2285D0028F8D16A4D0446A0
:100E40005420FFF7E5FA601C84B2285D0028F8D131
:100E5000664D04464120FFF7DBFA601C84B2285D32
:100E60000028F8D1624D04465320FFF7D1FA601CE8
:100E700084B2285D0028F8D15E4D04464320FFF778
:100E8000C7FA601C84B2285D0028F8D15A4D044688
:100E90005520FFF7BDFA601C84B2285D0028F8D108
:100EA000564D04465520FFF7B3FA601C84B2285D06
:100EB0000028F8D1524D04465320FFF7A9FA601CD0
:100EC00084B2285D0028F8D14E4D04464120FFF73A
:100ED0009FFA601C84B2285D0028F8D14A4D044670
:100EE0005320FFF795FA601C84B2285D0028F8D1E2
:100EF000464D04465320FFF78BFA601C84B2285DF0
:100F00000028F8D1424D04465320FFF781FA601CB7
:100F100084B2285D0028F8D13E4D04465220FFF7E8
:100F200077FA601C84B2285D0028F8D13A4D044657
:100F30005420FFF76DFA601C84B2285D0028F8D1B8
:100F4000364D04464D20FFF763FA601C84B2285DDD
:100F50000028F8D1324D04465420FFF759FA601C9E
:100F600084B2285D0028F8D12E4D04464120FFF7B9
:100F70004FFA601C84B2285D0028F8D12A4D04463F
:100F80005420FFF745FA601C84B2285D0028F8D190
:100F9000264D04465420FFF73BFA601C84B2285DBE
:100FA0000028F8D1224D0446412043E0B0990008C2
:100FB000DC990008089A0008249A0008509A000852
:100FC000789A0008A09A0008D89A0008109B000898
:100FD000489B00086C9B0008A89B0008D09B000859
:100FE000F89B0008209C0008509C0008949C000876
:100FF000D89C0008089D0008389D0008709D0008D6
:10100000A89D0008F09D0008149E0008549E00084A
:10101000949E0008B89E0008E89E00080C9F0008F7
:10102000489F00088C9F0008C89F000804A0000883
:1010300038A00008FFF7ECF9601C84B2285D002896
:10104000F8D1B44D04465720FFF7E2F9601C84B292
:10105000285D0028F8D1B04D04464C20FFF7D8F9A0
:10106000601C84B2285D0028F8D1AC4D04464320B2
:10107000FFF7CEF9601C84B2285D0028F8D1A84D96
:1010800004464320FFF7C4F9601C84B2285D0028A1
:10109000F8D1A44D04464320FFF7BAF9601C84B28E
:1010A000285D0028F8D1A04D04464920FFF7B0F98B
:1010B000601C84B2285D0028F8D19C4D04464E2067
:1010C000FFF7A6F9601C84B2285D0028F8D1984D7E
:1010D00004464420FFF79CF9601C84B2285D002878
:1010E000F8D1944D04465320FFF792F9601C84B266
:1010F000285D0028F8D1904D04464420FFF788F978
:10110000601C84B2285D0028F8D18C4D0446532021
:10111000FFF77EF9601C84B2285D0028F8D1884D65
:1011200004466320FFF774F9601C84B2285D002830
:10113000F8D109B0BDE8F08F1A4608AB1A44002375
:1011400002F81C3CFFF770BA7E4901A806F00AF9C4
:101150000446F0B97C4806F02DF9632840F29E80E1
:101160007A4D54200134A4B2FFF752F9285D0028CB
:10117000F8D1BEE508AB0021134403F81C1CFFF7AF
:101180002FBA08AB1A44002302F81C3C0021FFF7D9
:1011900048BA6F4901A806F0E5F80446002849D08E
:1011A0006C4901A806F0DEF80446002840F0E6800D
:1011B000654806F0FFF80628034600F24481664DB4
:1011C00016E015F8013F0134A3F16102192A02D893
:1011D000203BDBB22B70A3F130022A2AA3F13A03A1
:1011E00000F2DB81062B40F2D88106F0E3F80346DB
:1011F0009C425548E5D30646584D002407E016F8B2
:10120000013B013405F8013F06F0D4F803469C4247
:101210004D48F4D300231E46514A524D144484F8DD
:1012200087304F200136B6B2FFF7F2F8A85D0028EC
:10123000F8D15EE5444806F0BDF80F285CD84A4E68
:10124000454D0DE015F8013F0134A3F16102192A63
:1012500002D8203BDBB22B7006F8013F06F0AAF85B
:1012600084423948EED300231E463D4A3D4D144486
:1012700084F891304F200136B6B2FFF7C9F8A85D67
:101280000028F8D135E5394E3820FFF7C1F8681C41
:1012900085B2705D0028F8D1FFF796BA421C2A4942
:1012A0003348304D06F027F84F200134A4B2FFF741
:1012B000AFF8285D0028F8D11BE52E4E3220FFF74D
:1012C000A7F8681C85B2705D0028F8D1FFF77CBADA
:1012D000294E3520FFF79CF8681C85B2705D002808
:1012E000F8D1FFF771BA8DF80420FFF779B98DF8BE
:1012F00004201146FFF795B9144D54200134A4B2CF
:10130000FFF786F8285D0028F8D1F2E41946FFF7C8
:1013100088B900BF70A0000898A00008D0A00008FD
:10132000F4A0000830A1000854A1000888A100081A
:10133000BCA10008D8A100081CA2000838A200081F
:101340006899000804A500087C0600200CA5000888
:1013500028A5000834A500087B0600208A0000208C
:1013600004000020649900089400002050A30008A5
:10137000220000202CA300084CA300088D4901A8DE
:1013800005F0F0FF044648BB8B4806F013F8192817
:1013900000F2F480894E8A4D0DE015F8013F0134CA
:1013A000A3F16102192A02D8203BDBB22B7006F8A8
:1013B000013F05F0FFFF84427F48EED300231E4625
:1013C000804A814D144484F8A1304F200136B6B2D2
:1013D000FFF71EF8A85D0028F8D18AE47B4901A830
:1013E00005F0C0FF0446002841D1734805F0E2FF34
:1013F000192832D8724D2E4608E02F2B13D82C2BEB
:1014000040F064846C4805F0D5FF0134844280F0DC
:101410003F8416F8013FA3F161011929A3F12002CD
:10142000EBD8D3B23370A3F13A02062A00F2B180AE
:10143000674D00244F200134A4B2FEF7E9FF285D78
:101440000028F8D155E4634D54200134A4B2FEF7CE
:10145000DFFF285D0028F8D14BE45E4D54200134B5
:10146000A4B2FEF7D5FF285D0028F8D141E45A491F
:1014700001A805F077FF002800F0BA83574901A8BA
:1014800005F070FF002800F09683554901A805F08B
:1014900069FF0446002800F06E83524901A805F058
:1014A00061FF0446002800F034834F4901A805F08D
:1014B00059FF0446002800F018834C4901A805F0A4
:1014C00051FF0446002800F0E482494901A805F0D4
:1014D00049FF0446002800F0CA82464901A805F0E9
:1014E00041FF002800F08F82434901A805F03AFF30
:1014F0000446002800F06B82404901A805F032FF45
:101500000446002800F0FC833D4901A805F02AFFAD
:10151000002800F0E0833B4901A805F023FF0028E4
:1015200000F01C84384901A805F01CFF00286DD18B
:10153000214C22782F2A06D05C2A04D0A2F1300355
:10154000092B00F285836378202B40F281837E2B68
:1015500000F27E831B4900201B4D044681F8C10028
:1015600081F8BF2081F8C0304F200134A4B2FEF7CB
:101570004FFF285D0028F8D1FFF7BBBB154D542065
:101580000134A4B2FEF744FF285D0028F8D1FFF72C
:10159000B0BB5A2B3FF64CAF34E70D4D00244F2023
:1015A0000134A4B2FEF734FF285D0028F8D1FFF71C
:1015B000A0BB00BF6CA500087C060020A400002092
:1015C0007B060020040000206499000878A500082C
:1015D00040A500080CA5000880A50008A4A50008E7
:1015E000ACA50008D4A50008DCA50008E4A5000807
:1015F00008A600082CA6000864A6000888A6000813
:10160000B0A60008D0A60008FCA60008B34901A8AF
:1016100005F0A8FE002800F0D381B14901A805F02B
:10162000A1FE002800F0C381AE4901A805F09AFE92
:10163000002800F0B581AC4901A805F093FE002810
:1016400000F0A781A94901A805F08CFE002800F050
:101650009781A74901A805F085FE002800F0878141
:10166000A44901A805F07EFE002800F07781A24978
:1016700001A805F077FE002800F028819F4901A805
:1016800005F070FE002800F018819D4901A805F0C2
:1016900069FE002800F00A819A4901A805F062FE5F
:1016A000002800F00381984901A805F05BFE00289E
:1016B00000F0F580954901A805F054FE002800F0DF
:1016C000E780934901A805F04DFE002800F0D9807D
:1016D000904901A805F046FE002800F0D2808E490E
:1016E00001A805F03FFE002800F0C4808B4901A846
:1016F00005F038FE002800F0B480894901A805F003
:1017000031FE002800F0A680864901A805F02AFED7
:10171000002800F09F80844901A805F023FE0028DE
:1017200000F09180814901A805F01CFE002800F01E
:1017300083807F4901A805F015FE002875D07D49FA
:1017400001A805F00FFE00286FD07B4901A805F025
:1017500009FE002862D0794901A805F003FE04467D
:1017600000284BD0764901A805F0FCFD044600286E
:1017700034D0744901A805F0F5FD0446E8B172497A
:1017800001A805F0EFFD30B1704901A805F0EAFDB0
:10179000002840F00E836E4805F0A9FD6D4B6E4D9C
:1017A00083F8860000244F200134A4B2FEF730FEF7
:1017B000285D0028F8D1FFF79CBA654805F097FD31
:1017C000644B654D83F885004F200134A4B2FEF7C9
:1017D0001FFE285D0028F8D1FFF78BBA5C4805F0A2
:1017E00086FD5C4B5C4D58774F200134A4B2FEF768
:1017F0000FFE285D0028F8D1FFF77BBA544805F0AA
:1018000076FD544B544D18764F200134A4B2FEF7A8
:10181000FFFD285D0028F8D1FFF76BBA4D4CE07E44
:10182000FEF754FEE076FFF764BA4A4CA07EFEF75E
:101830004DFEA076FFF75DBA464C607EFEF746FE91
:101840006076FFF756BA434C207DFEF73FFE2075C9
:10185000FFF74FBA3F4C607DFEF738FE6075FFF72B
:1018600048BA3C4C94F8DC00FEF730FE84F8DC000B
:10187000FFF73FBA374CE07CFEF728FEE074FFF735
:1018800038BA344CA07CFEF721FEA074FFF731BAC1
:10189000304C607CFEF71AFE6074FFF72ABA2D4CBC
:1018A000207CFEF713FE2074FFF723BA294CE07B5F
:1018B000FEF70CFEE073FFF71CBA264C94F8D1003B
:1018C000FEF704FE84F8D100FFF713BA214CA07D87
:1018D000FEF7FCFDA075FFF70CBA00BF24A70008B7
:1018E0002CA7000834A700083CA7000844A700085C
:1018F0004CA7000850A7000858A7000860A70008D8
:1019000068A7000870A700087CA7000884A7000843
:101910008CA7000890A700089CA70008A4A70008AF
:10192000B0A70008B4A70008C0A70008C8A700080F
:10193000D4A70008D8A70008E4A70008ECA700086F
:10194000F8A7000804A8000810A800081CA80008B0
:101950007C0600200400002064990008AD4C94F837
:101960008300FEF7B3FD84F88300FFF7C2B9A94CEA
:1019700094F88200FEF7AAFD84F88200FFF7B9B957
:10198000A44C94F88400FEF7A1FD84F88400FFF7CE
:10199000B0B9A04CE07DFEF799FDE075FFF7A9B95D
:1019A0009C4CA078FEF792FDA070FFF7A2B9994C6D
:1019B0006078FEF78BFD984B60701870FFF799B94F
:1019C000944C2078FEF782FD2070FFF792B993487F
:1019D00005F08DFCA0F10A03B3F5F57F30D8904AED
:1019E000C31782FB00208B4AC3EBA0008D4DC2F8C9
:1019F000D8004F200134A4B2FEF70AFD285D00286C
:101A0000F8D1FFF776B9854805F071FC642806DD4A
:101A1000854BC21783FB00131844C2EB2020D0B1C2
:101A2000042818DC7B4B7F4D187300244F200134B1
:101A3000A4B2FEF7EDFC285D0028F8D1FFF759B9F4
:101A40007A4D31200134A4B2FEF7E2FC285D002873
:101A5000F8D1FFF74EB9764D00243120FEF7D8FCBF
:101A6000601C84B2285D0028F8D1FFF742B96B48AA
:101A700005F03DFCC0B2431E012B1CD96D4D312039
:101A80000134A4B2FEF7C4FC285D0028F8D1FFF7AA
:101A900030B9624805F02BFCC0B2C31F012B17D927
:101AA000654D37200134A4B2FEF7B2FC285D002852
:101AB000F8D1FFF71EB9574B5A4D98734F20013498
:101AC000A4B2FEF7A5FC285D0028F8D1FFF711B9F4
:101AD000504B544D58734F200134A4B2FEF798FC7C
:101AE000285D0028F8D1FFF704B94C4805F0FFFB4A
:101AF0004FF47A7303FB00F0464A4A4D50604F2082
:101B00000134A4B2FEF784FC285D0028F8D1FFF769
:101B1000F0B8424805F0E8FB04F00AF947490546E9
:101B200004F016FC20B14649284604F0FDFB58B9E4
:101B3000444D044646200134A4B2FEF769FC285DFA
:101B40000028F8D1FFF7D5B8284604F015FC314B32
:101B50003D49C3F8CC00284604F0FCFA314D02F0B0
:101B60002BFE4F200134A4B2FEF752FC285D002862
:101B7000F8D1FFF7BEB8294805F0B6FB04F0D8F855
:101B80002E49054604F0E4FB30B32D49284604F005
:101B9000CBFB08B3284604F0EFFB1E4B214DC3F8E6
:101BA000C8004F200134A4B2FEF732FC285D0028A3
:101BB000F8D1FFF79EB8194805F099FB154B194D60
:101BC000986000244F200134A4B2FEF721FC285D68
:101BD0000028F8D1FFF78DB81A4D0446462001348D
:101BE000A4B2FEF715FC285D0028F8D1FFF781B8F4
:101BF0000A4805F07CFBC3B2072B35D9134D0024EE
:101C000030200134A4B2FEF703FC285D0028F8D18F
:101C1000FFF76FB8040000205C0800207C0600205D
:101C2000676666666499000849D6B9F268A6000836
:101C300034A6000810A60008ECA5000800606A4859
:101C4000000D6349B4A5000800007A4488A5000887
:101C5000C54D002443200134A4B2FEF7D9FB285D12
:101C60000028F8D1FFF745B8C04C194601226D2075
:101C7000BF4D84F8D03002F08FFD00244F20013496
:101C8000A4B2FEF7C5FB285D0028F8D1FFF731B8F4
:101C9000B84E002406E015F8013F013406F8013F74
:101CA00005F088FB8442B448F5D300231E46AF4AB2
:101CB000AF4D144484F8E4304F200136B6B2FEF73D
:101CC000A7FBA85D0028F8D1FFF713B82D2B3FF430
:101CD00099ABFFF7ADBBA84805F009FBC0B20F28D0
:101CE00025D8A24BA24D83F8C40000244F20013414
:101CF000A4B2FEF78DFB285D0028F8D1FEF7F9BFEE
:101D00009D4805F0F4FA4BF29873A0F6B8329A4267
:101D100019D8964B964DC3F8E0004F200134A4B279
:101D2000FEF776FB285D0028F8D1FEF7E2BF934D61
:101D300000246F200134A4B2FEF76AFB285D00285E
:101D4000F8D1FEF7D6BF8E4D33200134A4B2FEF792
:101D50005FFB285D0028F8D1FEF7CBBF864805F071
:101D6000C6FA884BA0F596729A4206463AD8864A39
:101D7000C31782FB00127D49C3EB62137C4DC1F88F
:101D8000D43000244F2101340846A4B2FEF740FBB2
:101D9000295D0029F7D17D4802F0A8FE30460121D7
:101DA00001F074FE7948012109B0BDE8F04F02F05E
:101DB0009DBE774901A805F0D5FA0646002836D021
:101DC00001A8744905F0CEFA0446B8B1724D00245A
:101DD0003F200134A4B2FEF71BFB285D0028F8D198
:101DE000FEF787BF6D4D002433200134A4B2FEF707
:101DF0000FFB285D0028F8D1FEF77BBF684A5B4BDC
:101E00001578184622464FF482715D7000F0FAF89A
:101E1000002840F09E80634D044650200134A4B257
:101E2000FEF7F6FA285D0028F8D1FEF762BF43F608
:101E3000982147F2305A4D4C5B4D64220423012710
:101E4000DFF87891E073207460742075A075607677
:101E5000A076E0766160A26023764FF0070B8046A3
:101E60000FCDC4F81E0002202770C4F82A30677016
:101E7000A770A774E7746775E7752777C4F8221011
:101E8000C4F826202073A073607784F80DB007CDC6
:101E90002B88C4F82E00C4F83210D9F80000A978B5
:101EA000DFF81CC1C4F8362063873C220523C4F840
:101EB0008700C4F8910084F83C1084F8852084F8E9
:101EC0008630BCE80F00BCF80050C4F8A510A4F898
:101ED000B15099F80610B9F80450C4F8A920334A53
:101EE00084F88470C4F8A100C4F8AD3084F88D1073
:101EF00084F8971084F88260A4F88B50A4F8955069
:101F0000158893782A482B490B27A4F8BF506022E4
:101F100084F8C130164D1923C4F8C80084F8D0B035
:101F200084F8D16084F8C470C4F8CC10C4F8D4200C
:101F3000C4F8D830C4F8E0A04F2008F101081FFA17
:101F400088F8FEF765FA15F808000028F5D1FEF7C5
:101F5000D0BE194D43200134A4B2FEF759FA285DD2
:101F60000028F8D1FEF7C5BE04A700080400002031
:101F700064990008E70000207C060020B8A600084D
:101F80008CA60008D4C001001F85EB51004800401A
:101F900028A800086CA80008B0A80008D8A6000867
:101FA0005C08002074A800082CA8000868A8000895
:101FB0007499060044A1060090A800084CA80008E7
:101FC00054A8000802F1006303F57C431B68B3F1D9
:101FD000553F01D00120704710B4094C0023144430
:101FE00059B1CA1A032A88BF54F8042B03F1040319
:101FF00088BF40F8042B9942F3D8002010BC7047EA
:1020000004FC00082DE9F0410F461546064602F093
:102010002FFE342002F040FE144802F0B1FE80B2E0
:10202000042802D00120BDE8F0814FF055310F485F
:1020300002F072FE0E4C1FFA80F82C44354667B150
:10204000204655F8041B02F067FE043402F02AFE15
:102050000428FBD1AB1B9F42F2D802F015FEB8F169
:10206000040018BF0120BDE8F08100BF00FC00089B
:1020700004FC00082DE9F041CC78E30648BF8B78DA
:10208000098804F00F0748BF1F4311F0FF0F21D04C
:10209000066800234FF0010E4FF00F0802E00133F5
:1020A000082B16D00EFA03F232EA0105F7D19D0093
:1020B00008FA05FC26EA0C0607FA05F5282C46EA7C
:1020C000050631D0482C03F1010308BF0261082B3B
:1020D000E8D10660FF2923D9466800234FF0010E9E
:1020E0004FF00F0802E00133082B18D003F108026B
:1020F0000EFA02F232EA0105F5D19D0008FA05FC5C
:1021000026EA0C0607FA05F5282C46EA050609D04A
:10211000482C03F1010308BF0261082BE6D1466099
:10212000BDE8F0814261DEE74261B8E701617047D6
:102130004161704708B540F225510B4802F00EFD91
:1021400048B94FF45871084802F008FDBDE808404E
:10215000054802F0F9BC044802F0F6FCBDE808406E
:10216000C0B201F085BA00BF0038014008B540F2A6
:1021700025510B4802F0F2FC48B94FF45871084859
:1021800002F0ECFCBDE80840054802F0DDBC044864
:1021900002F0DAFCBDE80840C0B2FEF75DB900BF4E
:1021A00000480040F8B501214FF08040FEF7A6F846
:1021B00000B9F8BD01214FF08040FEF7ABF8584B55
:1021C0001B78012B69D001F09DFE002861D1554C90
:1021D0002378002B45D1544D237852494BB9534AAB
:1021E0001368013B136023B90123CB701368013BD3
:1021F0001360D5F804314C4E013BC5F804318BB95E
:102200006279484F12B17278002A5CD10123637160
:10221000A378444A002B48D193795022C5F8042171
:10222000002B3DD02B78404A002BC2D0404B414977
:102230005B8809689BB28B420ED923899168013370
:102240009BB22381238937489BB2B3EB410FB0DDAA
:10225000012383705370F8BDA37873BB00232381DF
:10226000A7E7354B354A364D19781278286802F0C1
:10227000A1FCA3786070002BADD102282CD00128DE
:1022800043D00028A7D101220321732002F084FA51
:10229000A1E7BDE8F84001F02FBEFEF777F992E71D
:1022A00080212848FFF742FFBCE7142380212548FE
:1022B000C5F80431FFF73AFFB4E74FF480512248E4
:1022C000FFF734FFCAE780211E487B71FFF730FF1C
:1022D0001423C6F80431A5E72B685A1C2A605B78E2
:1022E000114D03F0FF02002B7FF476AFA8684FF486
:1022F0007A7191FBF0F16B682270B3FBF1F30B493B
:102300000B60E27002F0B4FA66E7074D02462B7BE1
:1023100073200333DBB21946237102F03DFA5BE709
:10232000680600203404002004000020D8080020A3
:102330006C06002064080020F8080020F008002047
:1023400070080020000C014000080140000000005F
:102350002DE9F04FC94BDFF888B31B68DBF800208C
:10236000A1B09A4200F2C682C54CC64B0A221A702E
:1023700002F0A4FA139002F0AFFAC34A054610889F
:102380004FF4167380B203FB00F00013FDF7E4FF77
:10239000BE4AEB1782FB056182FB0062C3EB61134F
:1023A000C117C1EB6212642101FB135501FB12013D
:1023B000DFF83093B64EC9F80010B64FB649DFF8D3
:1023C00028A31BB230602DB217A80B60CAF80020FA
:1023D0003D6001F095F8199BB0499DF8742081FB90
:1023E0000301DB17C3EBA113023AAD49022ACB600C
:1023F00003D8179A002A40F08E828021A948FFF75F
:1024000095FEA7490023179A189D8B71A649D317EB
:1024100081FB020681FB0501E817C3EBA653C0EB65
:10242000A15083EAE37CA14982EAE27680EAE0787F
:1024300085EAE57EACEBE37CA8EBE078A6EBE27600
:10244000AEEBE57E01FB0C6001FB08E686EAE67177
:10245000DFF898E2A1EBE671954E80EAE0733EEA80
:10246000220228BF32463EEA250528BF3546A3EBA7
:10247000E07386489DF871E0A0FB0363A0FB0101B7
:102480009DF873609DF872005B094909CDF810C092
:10249000CDF81C8005930891DBF800308549039244
:1024A000069500960190CDF808E0834A834804F031
:1024B00035FFDDF86480794A4FEAE87582FB08321F
:1024C000C5EBA215284603F03DFD7D4E1290316804
:1024D00003F048FF40B1129B7A491846336003F07D
:1024E00041FF002840F02382774A904504DC774B77
:1024F0001B68052B00F24A82A37C002B40F051821E
:10250000237C002B40F05782637C002B40F07882C4
:10251000E37B002B40F08782E37C002B40F08D8230
:10252000237D002B40F09782637D002B40F0A0823A
:102530004FF6FF736648A4F80831FDF7EFFE064634
:102540005E4D03462A4628466249A4F8086104F015
:10255000E5FEDDF85CE0189F53498EEAEE72A2EBCF
:10256000EE7287EAE779A9EBE77981FB023681FB16
:10257000093AD017C0EBA656574B4FEAE970C0EBAB
:10258000AA5003FB162203FB1093C2EB0212C3EB0B
:10259000031392009B0081FB02A981FB03A1BEF102
:1025A000000FDFF84CA1D4BF4FF000084FF0010836
:1025B000CAF80050002F4FEAE27A4FEAE3758DF82F
:1025C000528094F8D180C5EBA151D4BF4FF0000CDC
:1025D0004FF0010CCAEBA9598DF850608DF854905A
:1025E0008DF8510012918DF855108DF853C0B8F147
:1025F000000F00F05081BEF1000FD4BF53214E21D7
:10260000DFF898E0002F0491199FD4BF572145218E
:1026100008918EFB02128EFB03138EFB071EC5EB87
:10262000A315CAEBA21AFB172C4AC3EBAE1E4FF43C
:102630007A7303FB1E7782FB0A13194642F2107865
:10264000DFF848C082FB0532F3B28CFB07C6FF17E8
:102650005FFA80FCC7EB6610EE174FEAEA77C7EB2C
:102660002137C6EB223608FB1656129908FB17A72E
:10267000CDF814C09DF8718006913BE068080020F9
:1026800004000020500A00206C0600201F85EB513A
:10269000D0070020CC070020E4080020D34D6210B2
:1026A00034040020000C01406BCA5F6B806967FF37
:1026B000E8A80008ECA8000895000020FC0800200D
:1026C000C807002000409C457F841E00DC080020D5
:1026D0000009002044A9000880969800AD8BDB68B3
:1026E0005408002058080020500800207CA2000850
:1026F00070080020944D9DF874109DF870C09DF8EE
:10270000732001930C909DF87230CDF800800991F0
:10271000CDF808908D4903970796CDF82CE0284610
:10272000CDF828C0DFF8608204F0F8FD01216A7856
:10273000C8F80010864900232A2A0B740BD0A91C64
:102740005340481B11F8012BDBB22A2AF8D1804AEA
:10275000C8F8000013747C4A7E49104604F0DEFD80
:102760007948FDF76BFE1A9803F022F874A3D3E9B9
:10277000002303F083F803F0BBFA9DF874309DF852
:102780005220023B022B8CBF5623412301939DF81C
:102790005330002A0CBF4FF0530E4FF04E0E002B5B
:1027A0000CBF5723452309931B9A6B4B4FEAE27CDE
:1027B00083FB0223BDF87A10684ACCEB2333A2FBDB
:1027C000019AA2FB0092DFF8B491089689FB036995
:1027D000634ECDF814E03060DFF8A8E11B9E4FEAAD
:1027E0005A1A8EFB06E6CCEB66364FF0640C5209A3
:1027F0000CFB1A11DFF888E10CFB120CD817C0EBA8
:10280000A909CEF800309DF851000C969DF87CE0A7
:102810009DF8556009EB890989B2A3EB49030D9333
:102820000A929DF872309DF873201091CDF82CC05B
:102830009DF87D10069007969DF871009DF85060F8
:10284000CDF83CE09DF854E00E9100904549049786
:10285000CDF80CE002963C4804F060FD6A783C48F4
:10286000002301212A2A0374C8F800100BD03E4926
:102870005340481B11F8012BDBB22A2AF8D1344A05
:10288000C8F800001374304A3249104604F046FD7F
:102890002D48FDF7D3FD94F80A31227E0133DBB2D7
:1028A0009A4284F80A31314D03D8AB7D002B40F0B9
:1028B000E78094F80B3194F886200133DBB29A421A
:1028C00084F80B31294D04D895F88430002B40F062
:1028D0004B81A378254A13B1507801F0DBFFDBF878
:1028E000003001221344CBF80030194B1A7021B08C
:1028F000BDE8F08F1E4B1D4C1B78002B7FF435ADCF
:1029000080211C486370FFF711FC4FF48071194857
:10291000FFF70CFC29E5189D002D3FF46EAD8B7878
:10292000002B40F0CE820A4901238B716EE51249DB
:102930000A68632A9CBF01320A60D5E5AFF30080C4
:10294000CC26C0B0FC19FF3F7408002050A9000835
:1029500034040020B0A90008AD8BDB681F85EB5163
:10296000EC080020BCA90008760800200400002024
:102970005C080020000C0140DC08002067666666E9
:10298000C407002089B5F814E808002042F210734B
:1029900063600023E376A37C01222276002B3FF4C0
:1029A000AFAD9F4A2B4610469E4904F0B7FC237CEE
:1029B000002B3FF4A9AD1A9802F0FAFE94A3D3E9D4
:1029C000002302F05BFF0022974B03F081F803F035
:1029D00067F90146954BC21783FB0103C2EBA303C2
:1029E00003EB83008E4A924DA1EB400000902960DA
:1029F0001046904904F092FC637C002B3FF488ADB4
:102A00001B9A8D49D31781FB0221894D844AC3EB60
:102A100061310B4629601046884904F07FFCE37B56
:102A2000002B3FF479AD7E4A139B1046834904F096
:102A300075FCE37C002B3FF473ADD9F80010784AA5
:102A4000DAF80030104600917D4904F067FC237DE0
:102A5000002B3FF469AD3968714A7A4B10461B6808
:102A60000091744904F05AFC637D002B3FF460AD83
:102A70006B4A9DF870301046704904F04FFC57E5E2
:102A80006A4E179B14A9D81786FB03230DF1520237
:102A9000C0EBA30000920DF15A0315AA01F038FA19
:102AA000189B0DF1530286FB0310DB17C3EBA0004C
:102AB00000920DF15B030DF155020DF1510101F092
:102AC00027FA199B60489DF8521080FB03209DF85F
:102AD000532000294FEAE3730CBF53264E26C3EB65
:102AE000A010002A0CBF4FF057084FF0450803F024
:102AF00029FA02F06FFE48A3D3E9002302F0BEFEDC
:102B00000022524B02F0E4FF03F0CAF89DF8507027
:102B10009DF85A109DF8549095F8C43094F8BFC0B1
:102B20009DF851E005F18702039600979DF85B60E0
:102B30009DF8557094F8C0500A900291CDF8049019
:102B400043494448CDF810C0CDF814E0CDF82080BA
:102B500006970796099504F0E1FB3E48FDF76EFCE9
:102B6000002384F80A31A4E62B7B0122D3400333EF
:102B7000394E19467320337101F00EFE95F8A130DD
:102B8000002285F80C21002B6ED0344F344EDFF834
:102B9000D48018E0203BDBB2A3F12C022E2A30D9DE
:102BA00030683B681844FDF719FB3868FDF716FBE1
:102BB00094F80C210132D2B2A31893F8A13084F812
:102BC0000C21002B50D0A3F16102192AE2D9212B4C
:102BD000E2D1732509E03068FDF700FB01F048FE03
:102BE0003068FDF7FBFA012DDFD0607801F052FE6E
:102BF00015F0010F4FEA5505EDD03868FDF7EEFAF4
:102C0000E9E7434413F82C5C012DEED8CDE700BF73
:102C1000CDCCCCCCCCCC0C4048E17A14AEA1A940B0
:102C2000FC0800201CA900080000244067666666B6
:102C3000C407002024A9000889B5F81430A90008A9
:102C400038A90008E4080020D34D621000408F40EE
:102C50001CAA00087408002034040020E0080020AA
:102C600060080020B8A800084FF47A70FDF7B6FAA3
:102C700094F88230002284F80B21002B3FF429AE17
:102C8000179BC14DD81785FB03230DF15202C0EBF2
:102C9000A3000DF1560100920DF15A0316AA01F09E
:102CA00037F9189B0DF1530285FB0310DB17C3EBBB
:102CB000A00000920DF15B030DF159020DF15701D7
:102CC00001F026F99DF85230002B00F033819DF879
:102CD00056709DF858305A37FFB29DF85A208DF83B
:102CE00056705B0052009DF85300DBB2D1B28DF8F4
:102CF00058308DF85A10002800F0F9809DF8576080
:102D00009DF859204C3EF6B28DF857609F4806F06A
:102D1000010CA0FB06E5A0FB07894FEA0C1ECCEBDB
:102D20000E0CDFF864E202EB8C028EFB02CE2D0962
:102D300005EB850AA0FB038C4FEAD90909EB89084A
:102D4000A6EB8A06C6F3460AA7EB4807904E4FEA61
:102D5000E278C8EB6E0E0AF1300809F1410930370C
:102D60004FEA9C0C86F8028094F8838041350EF17E
:102D7000410E86F80190F7700CF14109002735707B
:102D800086F804E086F80590B771B8F1000F55D0C9
:102D900092B2A0FB02E080080CEB8C0C00EB8000F0
:102DA000101ACCEB03039DF85B2000EB8000DBB234
:102DB00000EB800003EB8303DFF8E8C102EB800047
:102DC00003EB830382B201EB83039BB2ACFB021ED5
:102DD000ACFB03014FEA1E1E322000FB1E22090934
:102DE00000FB11330EF1300E92B2303186F806E05E
:102DF0001FFA83F81046F1718DF85B208DF85A8028
:102E000002F0D6FC5EA3D3E9002302F061FE0022AB
:102E1000604B02F081FB02F06BFF3072404602F023
:102E2000C7FC57A3D3E9002302F052FE0022594BFE
:102E300002F072FB02F05CFFB77270720023564F13
:102E4000DFF86481DFF8649184F80C3118E0203DEC
:102E5000EDB2A5F12C03DBB22E2B39D9D8F8000046
:102E60003B681844FDF7BAF93868FDF7B7F994F8EC
:102E70000C314A4A0133DBB2F55C84F80C316DB396
:102E8000A5F16103DBB2192BE1D9212DE1D1732525
:102E90000BE0D8F80000FDF7A1F901F0E9FCD8F843
:102EA0000000FDF79BF9012DDED0607801F0F2FC07
:102EB00015F0010F4FEA5505EBD03868FDF78EF994
:102EC000E7E780213648FFF733F9179A189D2AE57E
:102ED0004D4415F82C5C012DE7D8C5E74FF47A7006
:102EE0001292FDF77BF9129A82F80B51F1E49DF8EA
:102EF00057009DF85920C0F1B406F6B28DF857601E
:102F0000002A3FF403AFC0F1B3069DF85B50C2F155
:102F10003C00F6B2C0B28DF857608DF8590045B349
:102F2000C2F13B02D2B2C5F164058DF859208DF88B
:102F30005B50EBE69DF856209DF85830C2F15A07D9
:102F4000FFB28DF856708BB1C2F159079DF85A2027
:102F5000FFB2C3F13C018DF85670C9B25AB1C3F14A
:102F60003B03C2F16402DBB2D2B2BAE69DF85A204A
:102F7000B7E60246CAE60B46B3E600BFAFF30080F1
:102F8000448B6CE7FBA9004067666666CDCCCCCC71
:102F90004408002000405040E008002004000020C9
:102FA000000C01401F85EB5160080020B8A8000804
:102FB0002DE9F04F9BB000F0C3FD4FF48271002269
:102FC000C348FEF7FFFFC24BC24D5A78C24B0024E4
:102FD0001A7000F0AFFD00F01BFE4FF48071BF4887
:102FE000FFF7A4F88021BD48FFF7A2F80221BB48F3
:102FF000FFF79CF8B64BDFF82493986800F022FFA7
:10300000FDF790F800F082FBB14B6420D3F8D43088
:10301000012100FB03F000F039FDAD4BB04ED3F8B9
:10302000C80002F0C5FB0022AE4B02F051FD02F0D9
:103030007FFEAD4B1860A64BD3F8CC0002F0B8FB76
:103040000022A84B02F044FD02F072FEA74B0022C2
:103050001860FF21022001F09FFB0022FF210320C6
:1030600001F09AFB0022FF21042001F095FB01F002
:103070000DFC9E4B186801F09FFB954B012293F8C5
:10308000D0106D2001F0070101F086FB0122002124
:10309000712001F081FB00220821872001F07CFBD8
:1030A0000022FF21022001F077FB0022FF21752082
:1030B00001F072FB0022FF21762001F06DFB00225F
:1030C000FF21772001F068FB01220021102001F090
:1030D00063FB01220021132001F05EFB012220216D
:1030E000122001F059FB012280210F2001F054FB36
:1030F000774A0123E43212F8201CA2F15D002C7003
:10310000EB7000F0E1FE724B83F80D41B9F802005C
:1031100080B2FDF721F96E4B6D4A93F80D313060A6
:103120000133DBB2042B82F80D316D49EED9002357
:103130001E306F4E2B81086082F80D31AB704FF45A
:103140001674B9F8000080B204FB00F00013FDF71C
:1031500003F95F4B5E4A93F80D3130600133DBB207
:10316000042B82F80D31ECD9B0F5967F20DA0023DC
:1031700082F80D314FF480715848FEF7D9FF962040
:10318000FDF72CF84FF480715448FEF7CFFF9620DE
:10319000FDF724F84E4B4E4A93F80D310133DBB264
:1031A000092B82F80D31E5D94FF4FA70FDF716F8C6
:1031B000474B9A7C00232B81454B002A00F01C8151
:1031C000032283F80D21424B5B7B072B494B0CBF3D
:1031D000012200221A703E4B9B7B022B464B0CBFF8
:1031E000012200221A70454B454A03F1640113F88D
:1031F000010F8B4202F8010FF9D140F6B830344B81
:10320000404A93F885105B6890FBF1F1B2FBF3F351
:10321000DFF80CE13C480122DFF808C1CEF80030AD
:103220003A4C2B4B01FA02F80160642611463848EB
:10323000CCF8008026605A7001F058FC3548FDF744
:10324000FDF8234B234E98461C7E2B7803F0FF029B
:10325000002B69D1F378002B66D0002C6FD11C4B6A
:1032600093F84A31002B65D098F8184088F84A2125
:1032700011A800F045F90021274801F037FC01F0C2
:103280001DFB8246B9F800004FF4167380B203FBB1
:1032900000F00013FDF760F80D4A9DF85C3092F8DD
:1032A0000D2183469A4209D898F8172032B1042B91
:1032B00004D8119B13B1129B002B45D10121164854
:1032C00001F014FC2B7803F0FF02002BC2D02BE09E
:1032D00004000020340400205C080020000C0140A1
:1032E0006408002000408F40F40800206C08002093
:1032F000D0070020F8080020F0080020210000205E
:10330000D3070020A086010060080020E808002004
:103310000048004014010020003801406C060020E5
:1033200068080020E00800200021102001F048FE7D
:1033300030BF8AE701231C4688F84A3198E7013CF0
:10334000FFF706F8E4B280E72D4B186801F034FA75
:1033500098F8010001F09EFA98F8173053B901F07F
:1033600087FA284B186801F027FA274B986800F075
:1033700069FDA3E7EE4698F81A2098F8DC1098F853
:10338000193002EB410198F81C2003EB410198F839
:103390001B3002EB410203EB42021FFA8BF398F859
:1033A000C4B00693194BD2B20F935D3B0C93184BEC
:1033B000CDF814A009930892D8F8D8700DF1540CE8
:1033C000BCE80F000E97CDF834B098F8BFA098F87D
:1033D000C0B0CDF828A0CDF82CB098F81DA0DCF82E
:1033E00000C0CDF81CA0AEE80F0011ABCEF800C0B5
:1033F0000FCB00F0C9FDB2E7022283F80D21E2E60F
:10340000F40800206C08002004000020E8000020E0
:10341000D407002010B504464021084801F098FB6D
:103420000028F9D02146054801F08AFB40210348D5
:1034300001F08EFB0028F9D010BD00BF003801401C
:103440002DE9F04F98468B464118C9B2DBB2CD1832
:10345000EDB24FEA182A05EB0A0701440D44FFB20A
:103460003D4483B08146EDB2B8F1000F33D016462B
:103470000024325D01341744FFB2E4B23D44A0455C
:10348000EDB2F6D8B5200193FFF7C4FF6220FFF735
:10349000C1FF4846FFF7BEFF5846FFF7BBFF019B41
:1034A00008F1FF381846FFF7B5FF5046FFF7B2FFA7
:1034B0001FFA88F8B044741E14F8010FFFF7AAFF32
:1034C000A045F9D13846FFF7A5FF284603B0BDE86F
:1034D000F04FFFF79FBFB5200193FFF79BFF6220DE
:1034E000FFF798FF4846FFF795FF5846FFF792FF12
:1034F000019B1846FFF78EFF5046FFF78BFFE1E771
:10350000F0B472B604460A4E06F1200735460FCDD8
:10351000BD4220606160A260E36006F1100604F124
:103520001004F3D13068206062B6F0BC704700BF71
:10353000C4090020F0B58578C6788488AB19DBB261
:103540001A19D2B202EB14212B441A44C9B20A440C
:10355000D2B200F1060E54B100231EF803700133FD
:103560003944C9B2DBB20A449C42D2B2F5D81EF843
:10357000043074448B4204D03B4A938B01339383D1
:10358000F0BD63789342F7D1012D02D0052D12D002
:10359000F0BD072E25D0022E15D0062E59D0212E93
:1035A00044D0122EF4D1D0F81A202F4BDA60D0F884
:1035B0001E201A61F0BD012E52D0002EE8D12B4BF7
:1035C00001225A70E4E7284B5A8B01325A83D0F813
:1035D0000E201A60D0F80A205A60D0F816209A609F
:1035E000F0BD214B417F5A8B01325A83827E1A767D
:1035F000D0F82240827B1C60D0F81E405C60D0F87E
:103600002A40DA75C27B9C609A75027C19755A75DE
:10361000D0F84220DA60D0F846201A61427C83F864
:10362000202083F821205A76DA83F0BD0E4B827D6C
:10363000017EDA75C27D59759A75827CC17C42EA39
:103640000122DA83027D83F82020427D83F8212045
:10365000F0BD054B017C90F8352019761A75F0BD48
:10366000024B1E70F0BD00BFC409002048040020BA
:1036700010B5184CA37833B9E378BBB9B52825D079
:103680000023E37010BDE378E218042B107104D915
:103690002289591E0832914211D00133DBB25F2BCF
:1036A00089BF0023E370E370A37010BD012BE7D145
:1036B0006228E5D10222A3706071E27010BD201D66
:1036C000FFF738FF0023E370A37010BD01232071C2
:1036D000E37010BD4804002070B50B4D00232B7023
:1036E0002E466B70C92407E073784BB9FCF776FD62
:1036F000631E13F0FF0403D02B780120002BF3D0BE
:103700002878C0B270BD00BF480400202DE9F04702
:10371000ADF5107D5E220021684603F0F7FD4FF6FF
:10372000FF73012406252146B52762264FF00408C1
:103730004FF41640ADF806308DF808408DF8007053
:103740008DF801608DF802508DF80380ADF804808B
:1037500000F048F90A20FCF741FDBDF804300DEBFC
:1037600005029DF803109DF80200FFF769FE4FF473
:103770004870FCF733FD21464FF4165000F032F943
:103780000A20FCF72BFDBDF804300DEB05029DF877
:1037900003109DF80200FFF753FE4FF44870FCF74A
:1037A0001DFD5E22002118A803F0B0FD4FF00009B6
:1037B00014224FF40C61134628464FF4164AADF814
:1037C0006A10ADF8642049460DF166028DF8664036
:1037D000ADF87240ADF874408DF860708DF861609E
:1037E0008DF86250ADF86C90ADF87090ADF86EA0A9
:1037F000FFF726FE2146504600F0F4F80A20FCF7B9
:10380000EDFC49465E2230A803F080FD112402221F
:103810004FF0080E2846214613468DF8C7808DF8D4
:10382000C0708DF8C1608DF8C2508DF8C6E08DF87B
:10383000C340ADF8C42005E09DF8C2009DF8C31058
:10384000BDF8C4300DF1C602FFF7FAFDFFF744FFE3
:103850000028F1D05E220021B52648A803F056FDCD
:103860008DF8206162260122062503248DF821614E
:1038700002262846114623468DF827618DF82251ED
:103880008DF823218DF826218DF82821ADF82441CB
:1038900005E09DF822019DF82311BDF824310DF5B6
:1038A0009372FFF7CDFDFFF717FF0028F1D05E22DE
:1038B000002160A803F02AFD0625012203242846E2
:1038C00011468DF88251B5268DF883218DF8862119
:1038D0008DF88821622512222346ADF884418DF8A7
:1038E00080618DF881518DF8872105E09DF8820176
:1038F0009DF88311BDF884310DF5C372FFF7A0FD6B
:10390000FFF7EAFE0028F1D006238DF82731BDF835
:1039100024310DF593729DF823119DF82201FFF7D4
:103920008FFDFFF7D9FE0028F1D021238DF8273134
:10393000BDF824310DF593729DF823119DF82201F5
:10394000FFF77EFDFFF7C8FE0028F1D040F2FF35FB
:103950005E22002178A803F0D9FC42F2107E2422D6
:103960000624B52707261346114620468DF8E32185
:10397000ADF8E4218DF8E24162220024ADF8E65171
:1039800003258DF8E0718DF8E121052719228DF8C6
:10399000E8618DF8E95164264FF49675ADF8F04171
:1039A0000224ADF8EEE18DF8F271ADF8F421ADF836
:1039B000F621ADF8F861ADF8FA518DF8FD4105E05A
:1039C0009DF8E2019DF8E311BDF8E4310DF5F372C5
:1039D000FFF736FDFFF780FE0028F1D00DF5107DD2
:1039E000BDE8F0872DE9F04180460F46244D2026A2
:1039F00082B0002240F225512248C5F8846001F0CF
:103A000083F840F225511F4801F0CCF84FF458716B
:103A10001C4801F0C7F800211A4801F067F801219D
:103A20004FF4804000F05AFE174B002219460C2438
:103A300014485C819A80DA801A819A81C3F80080E8
:103A4000012400F0F5FF25210F22022301A88DF8A3
:103A500004108DF805208DF806308DF8074001F030
:103A60006FFA2146074801F041F837B1224640F28B
:103A70002551044801F048F86E6002B0BDE8F081BD
:103A800000E100E000380140140A00202DE9F04177
:103A900080460F46244D802682B0002240F22551F8
:103AA0002248C5F8846001F02FF840F225511F48E4
:103AB00001F078F84FF458711C4801F073F80021B8
:103AC0001A4801F013F801214FF4802000F014FE91
:103AD000174B002219460C2414485C819A80DA8026
:103AE0001A819A81C3F80080012400F0A1FF2721E8
:103AF0000E22022301A88DF804108DF805208DF800
:103B000006308DF8074001F01BFA2146074800F007
:103B1000EDFF37B1224640F22551044800F0F4FF92
:103B20006E6002B0BDE8F08100E100E000480040B6
:103B3000140A002000214FF0006001F037BA00BFE6
:103B400010B500F0D5FC4FF4803000F0F5FC00F02B
:103B50000FFD012800D010BD0446102001F07CF8B4
:103B6000022001F06FF8902000F02EFD4FF4A060CD
:103B700000F03EFD4FF4806000F030FD204600F084
:103B800011FD00F019FD0428FBD110BD1C4B2DE9DF
:103B9000F0414FF40042012619464FF01808194829
:103BA000194C1A4D1A8083F803809E70FEF762FA52
:103BB00031464FF4804000F09FFD4FF40060002339
:103BC00007224FF482772146A08028462282238054
:103BD000E3802381E381A4F80C80678001F032FA4E
:103BE0003146284601F062FA3146284601F04AFA89
:103BF000284621466780BDE8F04101F023BA00BFA6
:103C0000FC090020000C0140000A002000380040A0
:103C10002DE9F84F754C01210420012500F05EFDCF
:103C200010264FF48053214671482380E670A5701A
:103C3000FEF720FA2946082000F050FD4FF4C1732A
:103C400021466C484FF01808E6702380A570FEF7F7
:103C500011FA4FF42043214666480427238084F854
:103C60000380A570FEF706FA4FF4804321466148B1
:103C70002380E770FEF7FEF93046294600F02EFD5E
:103C80004FF4005B21465C48E6704FF4007AA57063
:103C9000A4F800B0FEF7EEF9FFF778FF214654488C
:103CA0004FF4806984F80380A570A4F800A0FEF7A3
:103CB000E1F921464E48E770A4F80090FEF7DAF9E2
:103CC00000214FF41650FFF78DFE2146494884F835
:103CD0000380A4F80090A570FEF7CCF94FF40063C0
:103CE000214644482380E770FEF7C4F900214FF4D1
:103CF0009640FFF7CBFE2946284600F0E1FC3F48FE
:103D00003F4E01F05DF83F4B00274FF00208294677
:103D10003D487360C6F80C80B760B76200F016FECD
:103D20003A4A80204FF48073C6F81C9031464FF019
:103D30002009706131483260B3613761C6F824B040
:103D4000C6F8209001F0D0F829462C4801F0ECF894
:103D50004023214626482380E770FEF78BF9214651
:103D60002348A4F80090E770FEF784F9384600F085
:103D700049FC2946504600F0B1FC254B4FF4602227
:103D8000194621489A601F601D715D71DF6083F8DC
:103D9000108000F0ADFD2A46032305211A4800F0EB
:103DA000FDFD424603230621174800F0F7FD294692
:103DB000154800F0CBFD1448294600F0BDFD12481F
:103DC00000F0CEFD104800F0D1FD0028FAD10E48D9
:103DD00000F0D0FD0C4800F0D3FD0028FAD10121FD
:103DE0000948BDE8F84F00F0CFBD00BFFC09002036
:103DF00000080140000C0140001001400800024092
:103E0000240A00206C060020002401404C240140BC
:103E1000E809002038B5084801F0DEF8074B4FF4F8
:103E200000451024012219461D80DC709A70044858
:103E3000BDE83840FEF71EB900380040FC090020FC
:103E4000000C014030B50446012185B0084600F061
:103E500053FC0021012000F06BFC1A4B052293FB60
:103E6000F4F301A90024013B4FF08040ADF8083085
:103E7000ADF80420ADF80640ADF80A408DF80C40CE
:103E8000FCF7CAF901214FF08040FCF743FA012208
:103E900011464FF08040FCF72BFA01251C236846A1
:103EA0008DF800308DF801408DF802508DF80350E8
:103EB00001F046F829464FF08040FCF701FA05B0C2
:103EC00030BD00BF40420F0070B5094C86B054F8B9
:103ED000045B039230260022ADB2009103460495A4
:103EE000019402961146034801F010FA06B070BD25
:103EF00054010020B0040020014801F04DBA00BF79
:103F0000B0040020014B93F86C017047B00400200E
:103F1000F0B580EAE074DFF868E0A4EBE0748EFBB3
:103F20000467E517134EC5EBA74706FB1744124E6F
:103F3000C4EB0414A40086FB04568EFB045EE41755
:103F40000E4DC4EB263685FB065CC4EBAE444FEA4F
:103F5000E67ECEEB6C1E4FF0640C0CFB1E66002858
:103F6000059DD4BF0020012028700F7014701E70B2
:103F7000F0BD00BF40420F00AD8BDB681F85EB51E9
:103F800083DE1B430000000084B02DE9F04FDDB05C
:103F900066AD85E80F00724A679B82FB001582FBC5
:103FA0000312C417DB17C3EBA203C4EBA505002B58
:103FB0006C4A85EAE5780B93A8EBE578B8BF5B42DD
:103FC00082FB031A82FB08164FEAE8706649DC1789
:103FD000C0EBA646C4EBAA4401FB143301FB1688D0
:103FE000C3EB03136149C8EB08184FEA88089B002C
:103FF000099481FB030481FB08014FEAE87C5C4FD4
:104000004FEAE37BCCEB2131CBEB243487FB040E6E
:1040100087FB017082FB037382FB08724FEAE4792D
:10402000CF17CBEBA343C9EB6E19C7EB60174FF06B
:10403000640E69980EFB1949CCEBA2480EFB1717CA
:104040000A9301F0B5FB42A3D3E9002301F016FC6B
:1040500041A3D3E9002301F03BFD01F049FE454CAB
:104060009DF8C8B1B4F87831789A0133A4F8783162
:10407000689BDFF808A112939DF9BC311BF0010F7A
:104080001193BDF8C031C4F8740110939DF8C43188
:10409000CAF800200E939DF8D0310C939DF8D431CE
:1040A0000D939DF8DC3113939DF8AC310F9369D1DA
:1040B0000B9B002DD4BF53204E20002B0D9BD8BF4F
:1040C000572107930A9BC8BF45210493099B1CAD48
:1040D00003930C9B019002930691CDF814900097E6
:1040E000434632462846244903F018F91BF0020FD4
:1040F00040F06D811BF0040F40F082811BF0080F2F
:1041000040F08C81DAF814301C4C013BCAF81430B2
:104110006BB90E9B5BB1739B2A461949284603F085
:10412000FDF80E9B1BF0160F636140F085810122A4
:104130000021732000F030FB29460E4801F0CCF935
:104140005DB0BDE8F04F04B0704700BFAFF3008032
:10415000CDCCCCCCCCCC0C4066666666662667407F
:104160006766666683DE1B4340420F00AD8BDB68EB
:104170001F85EB51B0040020B0AA000854010020B4
:1041800018AB000800F0A8FB1A9000F097FBC24B98
:104190005FFA88F8FFB2A3FB08211B90A3FB07205E
:1041A000F2B21692A3FB0262D4F87461C9081596A4
:1041B000C008A3FB066301EB810C00EB800EA8EBAB
:1041C0004C08A7EB4E075FFA88F6C0B2FFB2D208E0
:1041D000C3F3C70306F1300C17961997064630371C
:1041E000189002EB8200D2B2142B5FFA8CF85FFABF
:1041F00087FC0F9F0F929DF828208CBF1C336C33D7
:1042000030311491C4F87C71169984F88931169272
:10421000D4F88C31159AA14F06F1300EA7FB033765
:104220001346A1EB40069DF850107F0984F88211D7
:104230009949F6B2A1FB0331CB081593D4F88C3120
:10424000642101FB17331599503601EB8101A2EB74
:1042500041010F9A01EB810120371C33F6B2503235
:1042600007EB4101002D5FFA89F084F8913184F861
:10427000838184F885C184F884E19DF8249084F8D2
:10428000816184F8802184F89011854B06DD1799AF
:1042900001F150085FFA88F883F88381A9F10A03D5
:1042A000592B04D9189B03F1500E84F884E10B9B21
:1042B000002B05DC199F50375FFA87FC84F885C115
:1042C000099B632B00F3CB80099B092BCCBF09F121
:1042D0001C0909F1760984F886910A9B00F11C09F2
:1042E000092B169B84F88891D4BF58331C3384F86B
:1042F00087310BF0020303F0FF09694833B342F240
:104300005901129F674DFB1785FB0775C3EBA51776
:1043100007F51C57644D1037A5FB0735AD0A01FBA7
:10432000157762492135A1FB07317B1A01EB530355
:104330009B095B2101FB137121332131C0F894717A
:1043400080F8925180F8991180F89831149BCDF83B
:1043500008E0009356493346CDF80CC0CDF80480F0
:10436000544802F0DBFF0C9E94F8907194F8890198
:1043700094F8881194F8873194F8862194F891E1A3
:1043800005960D9E1CAD0297019000910496CDF804
:104390000CE028464849424F02F0C0FFB9F1000F37
:1043A00040F096801BF0080F62D1799CBAF80000AB
:1043B00040490394139C30230022049001910293FE
:1043C00000941146769B364800F0A0FF9AE63548E7
:1043D000129AD31780FB02124FF44D61C3EBA21265
:1043E00001FB02F280FB0213D217C2EBA313334985
:1043F0002A46284602F092FF1BF0040F3FF47EAEDF
:10440000D4F87421D4F88C312D49009228462A46DC
:1044100002F084FF1BF0080F3FF474AE109AB4F85A
:1044200078310292119A274901920F9A28460092F8
:104430002A4602F073FF65E61098184B0146A3FB6D
:10444000011364225B0902FB1302119992B20191DC
:1044500000921D492A46284602F060FF67E66D2B50
:10446000D4BF09F10809A9F1480984F8869134E715
:104470001A9A1099963AD4F87C01B4F878310392DC
:104480001B9A96398DE8050002912A460F49284665
:1044900002F044FF89E700BFCDCCCCCC1F85EB51A7
:1044A000B0040020D34D6210DFF4A71F69811668A5
:1044B00068AA00085801002078AA0008D4AA0008B9
:1044C000E0AA0008ECAA0008FCAA000898AA0008C4
:1044D00097F8991197F8982197F892312846019109
:1044E000009202492A4602F019FF5BE78CAA0008F5
:1044F0000F4B10B419680F4A41F0010119605C6854
:104500004FF41F0022405A601A68002122F0847282
:1045100022F480321A601A6810BC22F480221A60D9
:104520005A6822F4FE025A609860D962704700BF50
:10453000001002400000FFF80C4BB0F5803F1A68F5
:1045400022F480321A601A6822F480221A6008D09D
:10455000B0F5802F04D11A6842F4A0221A60704787
:1045600070471A6842F480321A60704700100240A7
:1045700082B000230A4A019302E0B3F5A06F08D08D
:10458000136813F4003F019B03F101030193019BA6
:10459000F3D0034B1868C0F3404002B0704700BF2F
:1045A00000100240034A536823F00303184350608D
:1045B000704700BF00100240024B586800F00C002A
:1045C000704700BF00100240034A536823F0F00315
:1045D00018435060704700BF00100240034A536800
:1045E00023F4E06318435060704700BF001002409E
:1045F000034A536823F4605343EAC0005060704795
:1046000000100240034A536823F4404318435060AB
:10461000704700BF00100240244910B44B6803F0FB
:104620000C03042B33D0082B25D00BB3204A1346A0
:1046300002601E4A1F495468C4F303140C5DE34032
:1046400043605468C4F302240C5D23FA04F48460CC
:104650005468C4F3C2240C5DE340C360526810BCCC
:10466000C2F381320A44127CB3FBF2F30361704758
:104670000F4B0360DDE74B684C68C3F383439A1C20
:10468000E30307D40C4B03FB02F30360D1E70B4BAE
:104690000360CEE7CB6A094903F00F030133B1FB96
:1046A000F3F302FB03F30360C3E700BF0010024013
:1046B00000127A006C01002000093D0000366E01F6
:1046C00029B9054A536923EA000050617047024B3B
:1046D0005A691043586170470010024029B9054AD1
:1046E000936923EA000090617047024B9A69104376
:1046F000986170470010024029B9054AD36923EA3E
:104700000000D0617047024BDA691043D8617047EE
:104710000010024029B9054AD36823EA0000D0609E
:104720007047024BDA681043D860704700100240AF
:1047300029B9054A136923EA000010617047024B4A
:104740001A691043186170470010024010B54FF409
:10475000005104460E48FDF7EBFC02210D4800F025
:10476000B3FC0028F9D021460A4800F099FC012149
:10477000084800F0A9FC0028F9D04FF40051044883
:10478000FDF7D4FC034800F08DFCC0B210BD00BFA3
:1047900000100140003800402AB9000200B208436E
:1047A00080B2FFF7D3BF40F08000000200B20843A0
:1047B00080B2FFF7CBBF00BF70B52749054601F0B7
:1047C00015FC2649044601F0C3FD2549061C204678
:1047D00018BF012601F0BEFC01F0F4FDB400C0B228
:1047E0001838341B00EBC404701C94FBF0F401F087
:1047F000A9FB1C4901F0FAFB0146284601F0AAFC7E
:104800000546E0B201F09EFB0146284601F0E4FABD
:10481000154901F0E1FA154901F0E8FB01F0D2FD7C
:1048200085B24FF20A20FFF791FF04F01F0040EA23
:10483000461040F4754040F04000FFF787FF280A1B
:1048400040F47640FFF782FFE8B240F47740BDE8DD
:104850007040FFF77BBF00BF3BB1933F0000F043C8
:1048600000002041ABAA0A410000C04100007A4785
:1048700008B505484FF48071FDF758FCBDE80840C5
:1048800048F24070FFF762BF000C014048F28070B0
:10489000FFF75CBF18B948F24870FFF757BF08B57B
:1048A00005484FF48071FDF743FCBDE8084048F22D
:1048B0004870FFF74BBF00BF000C014010B541F23C
:1048C000FF10FFF743FF044648F68070FFF73EFFF6
:1048D0006010403840B210BD08B541F6FF30FFF718
:1048E00035FF00F01F0000EB8000AA3008BD00BFBC
:1048F00042680B6822F4702230B422F480720C7982
:10490000134343EA042343608568CC688A68094BF3
:1049100022432B404C79134343EA440383600A7CCF
:10492000C36A013AD2B223F4700343EA0253C3626A
:1049300030BC7047FDF7F1FF836819B923F001031C
:104940008360704743F0010383607047836819B93F
:1049500023F480738360704743F4807383607047EF
:10496000836843F008038360704700BF8068C0F32A
:10497000C0007047836843F004038360704700BF42
:104980008068C0F380007047836819B923F4A003DE
:104990008360704743F4A00383607047092970B4B3
:1049A0001DD9A1F10A0606EB4606C5680724B440E6
:1049B000B34025EA04042343062AC3601BD90C2A0A
:1049C00027D90D3A02EB8202C36A1F24944001FAF0
:1049D00002F223EA04010A43C26270BC704701EB91
:1049E000410605690724B440B34025EA0404234383
:1049F000062A0361E3D8013A02EB8202436B1F24CB
:104A0000944001FA02F223EA04010A43426370BCB3
:104A10007047073A02EB8202036B1F24944001FAAD
:104A200002F223EA04010A43026370BC704700BF2C
:104A300030B504460D46038ACA889BB223F440531E
:104A40001343038282890B89888892B24989034380
:104A500022F4B0520B4322F00C0213439BB2A38109
:104A6000A38AAA899BB223F4407387B01343A3821D
:104A700001A8FFF7D1FD04991A48039BA28984423B
:104A800008BF0B4612F4004F2A6803EB830314BFE0
:104A90005200920003EB8303B3FBF2F3124DA189A2
:104AA000A5FB03206422400900FB12330A044FEAED
:104AB00000100AD41A013232A5FB0223C3F34313B8
:104AC00003439BB2238107B030BDD9003231A5FB2F
:104AD0000131C1F3421242EA00039BB2238107B0C5
:104AE00030BD00BF003801401F85EB51838929B9D3
:104AF00023F400531B041B0C838170479BB243F4C7
:104B000000538381704700BF10B401F01F04C1F34C
:104B100042110123012903FA04F30FD002290CBF2B
:104B2000103014302AB9026810BC22EA0303036073
:104B30007047026810BC1343036070470C30F1E704
:104B4000C1F30801818070478088C0F30800704776
:104B50000388194214BF012000207047C1F342129C
:104B600010B4012301F01F04012A03FA04F315D045
:104B7000022A0CBF028A828A92B21340028892B241
:104B80004BB10123090A03FA01F10A4214BF184686
:104B9000002010BC7047184610BC7047828992B242
:104BA0001340EBE7090A012303FA01F1C94389B273
:104BB00001807047F0B4194D194F2E783C78731C62
:104BC000DBB22B706CB9012B1AD020D971B1082B34
:104BD0001ED8F0BC0078023B40FA03F303F001005A
:104BE0007047013C3C700120F0BC7047092BF0D9A4
:104BF0000A2B0AD03AB900232B700220F0BC704770
:104C00002046F0BC70470B2BF5D10120ECE719B121
:104C1000B31CDBB22B70EBE70B46EBE7540600202E
:104C2000500A0020044A05491368002B08BF0B46B0
:104C3000184410601846704758060020580A002093
:104C4000FEE700BF034A136803F0380318431060FF
:104C5000704700BF00200240044B1A6822F0100287
:104C60001A601A6810431860704700BF00200240A5
:104C7000024B0349034A59605A60704700200240C2
:104C800023016745AB89EFCD024A136943F08003E6
:104C90001361704700200240014BD860704700BF8D
:104CA00000200240084BDA68D1070BD4DA685207BB
:104CB00001D502207047DB6813F0100F14BF0320EA
:104CC000042070470120704700200240084BDA683A
:104CD000D1070BD4DA68520701D502207047DB6890
:104CE00013F0100F14BF03200420704701207047F9
:104CF0000020024010B50446FFF7E8FF012806D166
:104D00003CB1FFF7E3FF012804F1FF34F8D004B110
:104D100010BD052010BD00BF70B5002382B0054650
:104D20004FF400500C460193FFF7E4FF042801D034
:104D300002B070BD114EA3B232694FF4005042F080
:104D4000010232612B80FFF7D5FF042806D041F61F
:104D5000FE7332691340336102B070BD02350195B4
:104D6000019B240C1C804FF40050FFF7C3FF41F659
:104D7000FE73326913403361DAE700BF002002405E
:104D800038B505464FF43020FFF7B4FF042800D0B3
:104D900038BD0A4C4FF43020236943F002032361ED
:104DA0006561236943F040032361FFF7A3FF41F6E8
:104DB000FD7322691340236138BD00BF002002400B
:104DC0004FF6FE7203683A491A4088424FF00003DA
:104DD0000260036043608360C36027D0354B984214
:104DE0002AD0354B98422DD0344B984230D0344B9A
:104DF000984239D0334B98423CD0334B98420FD035
:104E0000324B98423CD0324B98423FD0314B984283
:104E100042D0314B984245D0304B98421ED070471B
:104E20002F4A536843F07063536070472C4A5368AD
:104E300043F00F0353607047294A536843F0F0036F
:104E400053607047264A536843F470635360704759
:104E5000234A536843F4704353607047214A5368B0
:104E600043F470235360DAE71D4A536843F4702318
:104E7000536070471A4A536843F470035360704795
:104E8000184A536843F00F0353607047154A53683C
:104E900043F0F00353607047124A536843F4706361
:104EA000536070470F4A536843F470435360704730
:104EB000080002401C000240300002404400024052
:104EC000580002406C00024080000240080402408A
:104ED0001C040240300402404404024058040240D2
:104EE00000000240000402400A6A70B48D680B6939
:104EF0002A434D6913438A691D43CB6945EA02047D
:104F000002684D6A23438C6A1D4322F4FF43CE6836
:104F10004A682C4323F070030D6823430360466006
:104F20008560C26070BC704729B94FF6FE73026895
:104F3000134003607047036843F001030360704748
:104F4000C3785BB9037801215A09164803F01F039F
:104F5000203201FA03F340F822307047124B30B48C
:104F6000D9688278C9434478C1F302210F23C1F183
:104F70000405CB40AC401340027823431B0102F1EF
:104F80006042DBB202F5614282F80033037801220D
:104F900003F01F0003495B09824041F8232030BC25
:104FA000704700BF00E100E000ED00E021F060414B
:104FB00021F07F01014B08439860704700ED00E04D
:104FC000044A136919B923EA0000106170471843B5
:104FD0001061704700ED00E008B5174B984212D001
:104FE000164B98421BD0164B984200D008BD0121A9
:104FF0004FF40040FFF79CFBBDE8084000214FF450
:105000000040FFF795BB01214FF48050FFF782FB72
:10501000BDE8084000214FF48050FFF77BBB012121
:105020004FF48040FFF784FBBDE8084000214FF4B7
:105030008040FFF77DBB00BF0030014000380040DA
:10504000003C00404A8830B40C888B882243CC88CE
:105050001A430B8922434C898D891A4322430388C2
:10506000CC892A43224303F4415313439BB2038068
:10507000838B0A8A23F400631B041B0C838330BCDC
:1050800002827047038829B923F040031B041B0CDC
:10509000038070479BB243F040030380704700BF1A
:1050A00081817047808980B2704700BF838829B9A9
:1050B00023F004031B041B0C838070479BB243F056
:1050C00004038380704700BF0389194214BF012085
:1050D00000207047A1F17E02B2FA82F22DE9F84376
:1050E0002F4C002352098946054626461F4622704A
:1050F00063704FF0010811E0002B38D086F8038070
:105100000121B5F87001FBF747F863784FEA5909B8
:105110000133DBB2072B63703AD8327809F0010310
:10512000A370002AE8D12A8882EA0301C9074FEA5E
:10513000520244BF82F4044282F008022A80B3B1D2
:10514000E3780133DBB2052BE370D9D10121B5F847
:105150007001FBF721F895F86931022B1AD0022370
:1051600085F86931CA23A5F86E31E770C8E795F86C
:105170006931E770022B06D0022385F86931CA2312
:10518000A5F86E31BCE785F8698140F28913F7E72D
:10519000BDE8F88385F8698140F28913E3E700BF31
:1051A0005C06002038B503880446D9436FEA132310
:1051B0000B4DC9B22B71FFF78DFF29792046FFF700
:1051C00089FF20467E21FFF785FFFEF7DFFC0021E7
:1051D00084F86C1101227120BDE83840FFF7DCBA79
:1051E0005C06002010B50446012205217220FFF75D
:1051F000D3FA4FF400510A48FCF798FF012212211C
:105200007120FFF7C9FAFEF705FEB4F80401012387
:1052100084F86C3100B910BDBDE81040FAF7DEBF6C
:1052200000100140F8B5044640F21B3740F28910E7
:10523000DFF838E001251926CEF8084084F8681117
:10524000E270A4F86E01A4F80431A4F87071A6709D
:1052500084F86A51FEF79AFC002184F86C112A4602
:10526000BDE8F8407120FFF797BA00BF5C06002048
:10527000F8B508460D46164602F09CF8C0B2002864
:1052800042D000273C46691E202200F1FF3E0CE080
:105290002D2D08BF2025774504F1010335551CD07D
:1052A000DCB20137FBB2984214D911F8015F2C2D02
:1052B000EED12346062B13D8C3F10704E4B21C44F5
:1052C000E4B25D1CF254EBB29C42FAD10137FBB25E
:1052D0009842EAD800233355F8BDDBB2062BEBD950
:1052E000A3F10804E4B2052C03D8C3F10E04E4B220
:1052F000E5E7A3F10F04E4B2052C03D8C3F11504CC
:10530000E4B2DCE71C46CCE70446E3E72DE9F047CE
:1053100004469A46BDF830304FF020359DF8209075
:10532000DDF824809DF828700B9EFFF77BFF04F5C5
:1053300083735146C4F806511846A4F80A5102F086
:1053400031F804F20D1084F80C91C4F80D51414667
:10535000858002F027F884F81371314604F58A72CB
:105360002046BDE8F047FFF783BF00BF90F86B31E0
:105370003BB9012380F86B314FF400410548FCF73D
:10538000D5BE002380F86B314FF400410148FCF793
:10539000CFBE00BF000C014010B50446FFF7E6FF8A
:1053A0004FF080421388002123F001031B041B0CE3
:1053B0001380B4F86E319385918413889BB243F0C7
:1053C0000103138010BD00BF38B50546FFF70AFF83
:1053D0002846FFF7E1FF4FF6FF71AB7801222980E5
:1053E00085F869214BB100247E212846FFF772FE23
:1053F0000134AB78E4B2A342F6D838BD70B5144698
:105400000D460646FFF7E0FF34B115F8011B3046A4
:10541000FFF760FE013CF8D13046FFF7C3FE0020E5
:1054200070BD00BF2DE9F04F04469B46924683B005
:105430000E9B4FF0203500F10B02C0F80B50DDF849
:1054400034901046A4F80F509DF830800622261D97
:1054500001930F9F01F0B6FF656059460622B580A3
:10546000304601F0AFFF84F80A8084F811A0484666
:1054700001F0A0FF0546421C494604F1120001F06C
:105480003AFFE8B200F10E050023E1180A79013372
:10549000DBB25200AB420A71F7D300F10D03234493
:1054A0001A7904EB050E42F001021A710322231847
:1054B0008EF804201030F0220199DA7430443A4614
:1054C00001F080FF31462046BA1C2A4403B0BDE8F3
:1054D000F04FFFF793BF00BF30B5044685B00846D4
:1054E0000D4601F067FF94F8131104F58A7394F8E0
:1054F0000C218DE82A00039004F20D1304F583714A
:105500002046FFF78FFF05B030BD00BF81F000419E
:1055100002E000BF83F0004330B54FEA41044FEA98
:10552000430594EA050F08BF90EA020F1FBF54EA33
:10553000000C55EA020C7FEA645C7FEA655C00F0CF
:10554000E2804FEA5454D4EB5555B8BF6D420CDDA0
:105550002C4480EA020281EA030382EA000083EA23
:10556000010180EA020281EA0303362D88BF30BDC3
:1055700011F0004F4FEA01314FF4801C4CEA113119
:1055800002D0404261EB410113F0004F4FEA033378
:105590004CEA133302D0524263EB430394EA050F03
:1055A00000F0A780A4F10104D5F1200E0DDB02FA72
:1055B0000EFC22FA05F2801841F1000103FA0EF206
:1055C000801843FA05F359410EE0A5F120050EF1CC
:1055D000200E012A03FA0EFC28BF4CF0020C43FAFD
:1055E00005F3C01851EBE37101F0004507D54FF00A
:1055F000000EDCF1000C7EEB00006EEB0101B1F55A
:10560000801F1BD3B1F5001F0CD349085FEA30009F
:105610004FEA3C0C04F101044FEA445212F5800FAA
:1056200080F09A80BCF1004F08BF5FEA500C50F147
:10563000000041EB045141EA050130BD5FEA4C0C2A
:10564000404141EB010111F4801FA4F10104E9D1B3
:1056500091F0000F04BF01460020B1FA81F308BFAA
:105660002033A3F10B03B3F120020CDA0C3208DD76
:1056700002F1140CC2F10C0201FA0CF021FA02F151
:105680000CE002F11402D8BFC2F1200C01FA02F1C1
:1056900020FA0CFCDCBF41EA0C019040E41AA2BFE6
:1056A00001EB0451294330BD6FEA04041F3C1CDAAE
:1056B0000C340EDC04F11404C4F1200220FA04F0CE
:1056C00001FA02F340EA030021FA04F345EA030178
:1056D00030BDC4F10C04C4F1200220FA02F001FA3A
:1056E00004F340EA0300294630BD21FA04F02946BC
:1056F00030BD94F0000F83F4801306BF81F4801155
:105700000134013D4EE77FEA645C18BF7FEA655CC7
:1057100029D094EA050F08BF90EA020F05D054EA99
:10572000000C04BF1946104630BD91EA030F1EBF9E
:105730000021002030BD5FEA545C05D140004941A2
:1057400028BF41F0004130BD14F580043CBF01F595
:10575000801130BD01F0004545F0FE4141F470017B
:105760004FF0000030BD7FEA645C1ABF1946104656
:105770007FEA655C1CBF0B46024650EA013406BF57
:1057800052EA033591EA030F41F4002130BD00BF16
:1057900090F0000F04BF0021704730B54FF48064D3
:1057A00004F132044FF000054FF0000150E700BF54
:1057B00090F0000F04BF0021704730B54FF48064B3
:1057C00004F1320410F0004548BF40424FF00001A0
:1057D0003EE700BF42004FEAE2014FEA31014FEAE3
:1057E00002701FBF12F07F4393F07F4F81F0605132
:1057F000704792F0000F14BF93F07F4F704730B5A1
:105800004FF4607401F0004521F0004120E700BF33
:1058100050EA010208BF704730B54FF000050AE0BA
:1058200050EA010208BF704730B511F0004502D5BB
:10583000404261EB41014FF4806404F132045FEABD
:10584000915C3FF4DCAE4FF003025FEADC0C18BF62
:1058500003325FEADC0C18BF033202EBDC02C2F158
:10586000200300FA03FC20FA02F001FA03FE40EAEA
:105870000E0021FA02F11444C1E600BF70B54FF0EA
:10588000FF0C4CF4E06C1CEA11541DBF1CEA1355CC
:1058900094EA0C0F95EA0C0F00F0DEF82C4481EA34
:1058A000030621EA4C5123EA4C5350EA013518BF54
:1058B00052EA033541F4801143F4801338D0A0FB41
:1058C00002CE4FF00005E1FB02E506F00042E0FBEE
:1058D00003E54FF00006E1FB03569CF0000F18BFF4
:1058E0004EF0010EA4F1FF04B6F5007F64F540749C
:1058F00004D25FEA4E0E6D4146EB060642EAC6212F
:1059000041EA55514FEAC52040EA5E504FEACE2E9B
:10591000B4F1FD0C88BFBCF5E06F1ED8BEF1004F9E
:1059200008BF5FEA500E50F1000041EB045170BD1A
:1059300006F0004646EA010140EA020081EA03015E
:10594000B4EB5C04C2BFD4EB0C0541EA045170BD5A
:1059500041F480114FF0000E013C00F3AB8014F1D4
:10596000360FDEBF002001F0004170BDC4F100041D
:10597000203C35DA0C341BDC04F11404C4F120059E
:1059800000FA05F320FA04F001FA05F240EA0200F9
:1059900001F0004221F0004110EBD37021FA04F62F
:1059A00042EB06015EEA430E08BF20EAD37070BDE9
:1059B000C4F10C04C4F1200500FA04F320FA05F048
:1059C00001FA04F240EA020001F0004110EBD3704A
:1059D00041F100015EEA430E08BF20EAD37070BDBA
:1059E000C4F1200500FA05F24EEA020E20FA04F393
:1059F00001FA05F243EA020321FA04F001F0004142
:105A000021FA04F220EA020000EBD3705EEA430EB2
:105A100008BF20EAD37070BD94F0000F0FD101F0E1
:105A20000046400041EB010111F4801F08BF013C1A
:105A3000F7D041EA060195F0000F18BF704703F058
:105A40000046520043EB030313F4801F08BF013DDF
:105A5000F7D043EA0603704794EA0C0F0CEA13559B
:105A600018BF95EA0C0F0CD050EA410618BF52EA55
:105A70004306D1D181EA030101F000414FF000005B
:105A800070BD50EA410606BF1046194652EA430669
:105A900019D094EA0C0F02D150EA013613D195EADD
:105AA0000C0F05D152EA03361CBF104619460AD125
:105AB00081EA030101F0004141F0FE4141F470012F
:105AC0004FF0000070BD41F0FE4141F4780170BD1F
:105AD00070B54FF0FF0C4CF4E06C1CEA11541DBF84
:105AE0001CEA135594EA0C0F95EA0C0F00F0A7F886
:105AF000A4EB050481EA030E52EA03354FEA0131B3
:105B000000F088804FEA03334FF0805545EA1313C5
:105B100043EA12634FEA022245EA111545EA10658D
:105B20004FEA00260EF000419D4208BF964244F124
:105B3000FD0404F5407402D25B084FEA3202B61A43
:105B400065EB03055B084FEA32024FF480104FF417
:105B5000002CB6EB020E75EB030E22BFB61A75468B
:105B600040EA0C005B084FEA3202B6EB020E75EB1E
:105B7000030E22BFB61A754640EA5C005B084FEA86
:105B80003202B6EB020E75EB030E22BFB61A754653
:105B900040EA9C005B084FEA3202B6EB020E75EB5E
:105BA000030E22BFB61A754640EADC0055EA060E1F
:105BB00018D04FEA051545EA16754FEA06164FEA62
:105BC000C30343EA52734FEAC2025FEA1C1CC0D10E
:105BD00011F4801F0BD141EA00014FF000004FF09B
:105BE000004CB6E711F4801F04BF01430020B4F15C
:105BF000FD0C88BFBCF5E06F3FF6AFAEB5EB030C14
:105C000004BFB6EB020C5FEA500C50F1000041EB10
:105C1000045170BD0EF0004E4EEA113114EB5C04DD
:105C2000C2BFD4EB0C0541EA045170BD41F48011B0
:105C30004FF0000E013C90E645EA060E8DE60CEAB8
:105C4000135594EA0C0F08BF95EA0C0F3FF43BAFD5
:105C500094EA0C0F0AD150EA01347FF434AF95EA8C
:105C60000C0F7FF425AF104619462CE795EA0C0F70
:105C700006D152EA03353FF4FDAE1046194622E73D
:105C800050EA410618BF52EA43067FF4C5AE50EA17
:105C900041047FF40DAF52EA43057FF4EBAE12E707
:105CA0004FEA410212F5001215D211D56FF4787344
:105CB000B3EB625212D94FEAC12343F0004343EAE7
:105CC000505311F0004F23FA02F018BF40427047C2
:105CD0004FF00000704750EA013005D111F000404C
:105CE00008BF6FF0004070474FF00000704700BFE2
:105CF0004A0011D212F5001211D20DD56FF478734B
:105D0000B3EB62520ED44FEAC12343F0004343EA9F
:105D1000505323FA02F070474FF00000704750EAEA
:105D2000013002D14FF0FF3070474FF00000704754
:105D30004FEA4102B2F1E04324BFB3F5001CDCF1AD
:105D4000FE5C0DD901F0004C4FEAC0024CEA5070E5
:105D5000B2F1004F40EB830008BF20F00100704714
:105D600011F0804F21D113F13872BCBF01F0004017
:105D7000704741F480114FEA5252C2F11802C2F149
:105D8000200C10FA0CF320FA02F018BF40F00100CA
:105D90004FEAC1234FEAD32303FA0CFC40EA0C007C
:105DA00023FA02F34FEA4303CCE77FEA625307D1B9
:105DB00050EA01331EBF4FF0FE4040F440007047F0
:105DC00001F0004040F0FE4040F40000704700BF8A
:105DD00080F0004002E000BF81F0004142001FBFA0
:105DE0005FEA410392EA030F7FEA226C7FEA236CA9
:105DF0006AD04FEA1262D2EB1363C1BFD21841409E
:105E000048404140B8BF5B42192B88BF704710F033
:105E1000004F40F4000020F07F4018BF404211F0D6
:105E2000004F41F4000121F07F4118BF494292EA3E
:105E3000030F3FD0A2F1010241FA03FC10EB0C006A
:105E4000C3F1200301FA03F100F0004302D54942F7
:105E500060EB4000B0F5000F13D3B0F1807F06D3A4
:105E600040084FEA310102F10102FE2A51D2B1F19C
:105E7000004F40EBC25008BF20F0010040EA030091
:105E80007047490040EB000010F4000FA2F101023E
:105E9000EDD1B0FA80FCACF1080CB2EB0C0200FAC8
:105EA0000CF0AABF00EBC25052421843BCBFD04016
:105EB0001843704792F0000F81F4000106BF80F490
:105EC00000000132013BB5E74FEA41037FEA226C53
:105ED00018BF7FEA236C21D092EA030F04D092F01E
:105EE000000F08BF0846704790EA010F1CBF002052
:105EF000704712F07F4F04D1400028BF40F00040AF
:105F0000704712F100723CBF00F50000704700F0CE
:105F1000004343F0FE4040F4000070477FEA2262F5
:105F200016BF08467FEA23630146420206BF5FEAC6
:105F3000412390EA010F40F4800070474FF00003C6
:105F400004E000BF10F0004348BF40425FEA000C8D
:105F500008BF704743F0964301464FF000001CE035
:105F600050EA010208BF70474FF000030AE000BF8B
:105F700050EA010208BF704711F0004302D54042C9
:105F800061EB41015FEA010C02BF8446014600203B
:105F900043F0B64308BFA3F18053A3F50003BCFA56
:105FA0008CF2083AA3EBC25310DB01FA02FC634403
:105FB00000FA02FCC2F12002BCF1004F20FA02F20A
:105FC00043EB020008BF20F00100704702F12002FD
:105FD00001FA02FCC2F1200250EA4C0021FA02F25E
:105FE00043EB020008BF20EADC7070474FF0FF0C63
:105FF0001CEAD0521EBF1CEAD15392EA0C0F93EA5E
:106000000C0F6FD01A4480EA010C400218BF5FEAFF
:1060100041211ED04FF0006343EA501043EA511172
:10602000A0FB01310CF00040B1F5000F3EBF49006C
:1060300041EAD3715B0040EA010062F17F02FD2A70
:106040001DD8B3F1004F40EBC25008BF20F0010053
:10605000704790F0000F0CF0004C08BF49024CEA6A
:10606000502040EA51207F3AC2BFD2F1FF0340EAFC
:10607000C250704740F400004FF00003013A5DDC6D
:1060800012F1190FDCBF00F000407047C2F10002AE
:10609000410021FA02F1C2F1200200FA02FC5FEA9B
:1060A000310040F1000053EA4C0308BF20EADC70E5
:1060B000704792F0000F00F0004C02BF400010F457
:1060C000000F013AF9D040EA0C0093F0000F01F004
:1060D000004C02BF490011F4000F013BF9D041EA26
:1060E0000C018FE70CEAD15392EA0C0F18BF93EA28
:1060F0000C0F0AD030F0004C18BF31F0004CD8D152
:1061000080EA010000F00040704790F0000F17BFD8
:1061100090F0004F084691F0000F91F0004F14D01E
:1061200092EA0C0F01D142020FD193EA0C0F03D176
:106130004B0218BF084608D180EA010000F0004079
:1061400040F0FE4040F40000704740F0FE4040F454
:10615000400070474FF0FF0C1CEAD0521EBF1CEAF3
:10616000D15392EA0C0F93EA0C0F69D0A2EB030211
:1061700080EA010C49024FEA402037D04FF08053AB
:1061800043EA111143EA10130CF000408B4238BF70
:106190005B0042F17D024FF4000C8B4224BF5B1A7E
:1061A00040EA0C00B3EB510F24BFA3EB510340EACC
:1061B0005C00B3EB910F24BFA3EB910340EA9C007A
:1061C000B3EBD10F24BFA3EBD10340EADC001B01EA
:1061D00018BF5FEA1C1CE0D1FD2A3FF650AF8B428E
:1061E00040EBC25008BF20F0010070470CF0004C9B
:1061F0004CEA50207F32C2BFD2F1FF0340EAC250C6
:10620000704740F400004FF00003013A37E792F086
:10621000000F00F0004C02BF400010F4000F013AE4
:10622000F9D040EA0C0093F0000F01F0004C02BFDF
:10623000490011F4000F013BF9D041EA0C0195E748
:106240000CEAD15392EA0C0F08D142027FF47DAFE1
:1062500093EA0C0F7FF470AF084676E793EA0C0FD1
:1062600004D14B023FF44CAF08466EE730F0004CCF
:1062700018BF31F0004CCAD130F000427FF45CAF5F
:1062800031F000437FF43CAF5FE700BF4FF0FF3CCD
:1062900006E000BF4FF0010C02E000BF4FF0010C20
:1062A0004DF804CD4FEA40024FEA41037FEA226CE9
:1062B00018BF7FEA236C11D001B052EA530C18BF0B
:1062C00090EA010F58BFB2EB030088BFC81738BF70
:1062D0006FEAE17018BF40F0010070477FEA226C5E
:1062E00002D15FEA402C05D17FEA236CE4D15FEA5A
:1062F000412CE1D05DF8040B704700BF844608468E
:106300006146FFE70FB5FFF7C9FF002848BF10F14E
:10631000000F0FBD4DF808EDFFF7F4FF0CBF012093
:1063200000205DF808FB00BF4DF808EDFFF7EAFF1D
:1063300034BF012000205DF808FB00BF4DF808EDD8
:10634000FFF7E0FF94BF012000205DF808FB00BFCD
:106350004DF808EDFFF7D2FF94BF012000205DF853
:1063600008FB00BF4DF808EDFFF7C8FF34BF012060
:1063700000205DF808FB00BF4FEA4002B2F1FE4F7B
:106380000FD34FF09E03B3EB12620DD94FEA0023F7
:1063900043F0004310F0004F23FA02F018BF4042D0
:1063A00070474FF00000704712F1610F01D14202B7
:1063B00005D110F0004008BF6FF0004070474FF06B
:1063C0000000704742000ED2B2F1FE4F0BD34FF0E7
:1063D0009E03B3EB126209D44FEA002343F000435B
:1063E00023FA02F070474FF00000704712F1610F7E
:1063F00001D1420202D14FF0FF3070474FF0000050
:10640000704700BF03685A004CBF43F0004323F0BD
:1064100000431844704700BF61B32DE9F84F01F104
:10642000FF3A90460646D146002707EB090404EBE5
:10643000D4746410E50071190846FFF7E3FFA24524
:10644000834605F10800304409D0FFF7DBFFC34560
:1064500000F1FF3005D8404509D2671CE5E7C34588
:1064600005D9A74202D004F1FF39DEE70021084632
:10647000BDE8F88F08467047012807D0022807D0EA
:10648000044B00280CBF1846002070470248704794
:10649000024870478D6B0008916B0008956B0008EF
:1064A00030B5254B83B004468D1E7BB301A9284629
:1064B000AFF3008020B301992A46FFF7ADFF0146F4
:1064C000F0B1FFF79FFF4B68A064012B12D0002BA7
:1064D00001F1040021DBFFF795FF0023E064236551
:1064E0000368002B1DDBFFF78DFF0023206118469A
:1064F00003B030BD002323610523184603B030BD2F
:10650000002323610923184603B030BD0B490C4B0F
:106510000846591AC9100191CEE70123E0642365AA
:10652000DEE7C3F30360FFF7A7FF0028206114BF75
:1065300000230923DBE700BF00000000DCAD0008FA
:1065400014AF0008036810B5DA07044606D49B07A9
:1065500000F1480009D500F05BFC2368590709D514
:106560001A070ED5DB0613D510BD00F049FC2368D1
:106570005907F5D404F1D00000F052FC23681A0743
:10658000F0D404F5A87000F053FC2368DB06EBD4CC
:1065900004F5E870BDE8104000F08EBC03680BB154
:1065A000184470471846704709207047704700BF6D
:1065B00070B504460D4608E02A6C236962612146E5
:1065C0002A4601209847082808D1296C2046FFF761
:1065D00067FF06460028EFD0FEF732FB0728FBD105
:1065E0003046296CFFF7E2FF281D00F0FDFB00BFDD
:1065F0002DE9F0470646ADF5727D03AD0C1D17463B
:106600000FCC0FC50FCC0FC50FCC0FC594E80F00F2
:1066100002ACD6F80C80D6F8189085E80F0000235D
:106620003046216C2360FFF73BFF0546002F14BF67
:106630000A2709277DB1A36B47F010018DE81002EE
:106640003246636401203346C04778BB28460DF5C7
:10665000727DBDE8F087236C4FF4F07273612146C0
:106660007AA800F048FE33697AAA3146384698473E
:10667000889B82468DE81002394663643246334671
:106680000120C04790B94FF4F0727AA9204600F07B
:1066900032FEBAF1080F06D1216C3046FFF700FF39
:1066A00009270546C6E7BAF1070F04D009200DF502
:1066B000727DBDE8F0872846216CFFF777FF03A8BD
:1066C00000F092FB406C7047F0B5CB6BF9B00B64F7
:1066D0000E1D01AD0F4604460FCE0FC50FCE0FC5E0
:1066E0000FCE0FC596E80F004FF0FF3685E80F007C
:1066F000009606E023696A46214698470828054621
:1067000008D110992046FFF7CBFE0028F2D00920CF
:1067100079B0F0BD6846FFF715FF062DF7D1394671
:106720002046FFF745FF00BF30B4DD6BC1608261DA
:1067300019461D64002230BC5AE700BF70B543699A
:10674000C6680B6426B10122FFF752FFFEF778FA04
:1067500003690A4604460D46014602209847072869
:1067600007D0082803D129462046FFF721FFFEF76E
:1067700067FA3046296CFFF719FF281D00F034FB3B
:10678000C2682AB110B4CC6B00220C6410BC2FE795
:106790009AE700BF704700BF836813B1014601202C
:1067A0001847704700B5042907D8DFE801F003094E
:1067B000060909000BB90F2A05D902205DF804FB70
:1067C00001205DF804FB00EB820252681846019B31
:1067D0001A605DF804FB00BF10B584B0002303AC61
:1067E0000A4600941946FFF7DDFF039804B010BD78
:1067F00000B5042907D8DFE801F0030906090900FC
:106800000BB90F2A05D902205DF804FB01205DF8C1
:1068100004FB019900EB82020968184651605DF89B
:1068200004FB00BF10B584B004AC44F8042D002371
:106830000A4600941946FFF7DBFF04B010BD00BF05
:10684000F0B5D36BADF50F7D1364151D17AC07467E
:106850000E460FCD0FC40FCD0FC40FCD0FC495E85A
:106860000F004FF0FF3584E80F00169511E016A8D1
:106870006A46FFF7D7FF314616A8B84780B9049B90
:1068800016AA6946082098470528044609D0092811
:1068900006D026996846FFF703FE0C210028E6D0B3
:1068A000092416A8FFF74EFE20460DF50F7DF0BD1A
:1068B0002DE9F04FCC6C914622688BB004340D4624
:1068C0000792089400F0030B1E46002B64D11202BD
:1068D000032307928DF825608DF824302B6DBBF1D2
:1068E000020F08BFAC6B13F0010343D100F00800A6
:1068F000C2B2039201932768002F3DD0022E47D0E9
:106900002788B4F802800434AB6C28F0010A0F2108
:1069100048469A44FFF760FF824537D827F00103C5
:106920009A4450452CBF002001204FEA480808F047
:10693000020807F0010748EA0708B8F1010F41D043
:1069400038D3B8F1020F1DD1236823F00042029220
:10695000BBF1000F79D130B10399002900F081809B
:10696000002A00F0A880002B79DB029B013304EBA6
:106970008304C0E700230193022E40DDFFF714FEDD
:10698000002842D009200BB0BDE8F08F0020CCE7F2
:10699000D4F804800834B7E7022B9FDC130CD9B27B
:1069A00012048DF82530022304EB810407928DF840
:1069B000243093E7BBF1000F02D0002840F0B080F4
:1069C000043498E7BBF1000F26D1B0B194E80C0075
:1069D000991C4FEAD272D5D005F1580101330691C6
:1069E00000F09480201DFFF7D9FD06AB0146284634
:1069F000AFF30080002840F0B88008347BE707A997
:106A0000484600F0F3FA0028BCD1019B002B5CD172
:106A100008200BB0BDE8F08F0D2148462F6AFFF724
:106A2000DBFE8742E9D1AB6A9C42E6D12046FFF704
:106A3000E9FC0F2102464846FFF7F4FE48462A4685
:106A40000021FFF7EFFE07209DE70D2148462F6A42
:106A5000FFF7C2FE874248D02368002B85DA043452
:106A600083E7029B3BB305F15803271DCDF810B017
:106A7000DDF80C80A346DDF808A01C46059602E070
:106A8000B245B04616D038460694FFF787FD06ABF0
:106A9000014600222846AFF3008008F101060437C2
:106AA0000028EDD0029B5C464345DDF810B0059E02
:106AB000D2D100E05C4648460D21FFF78DFE069BD3
:106AC0002862AC626B6206205DE70F214846FFF743
:106AD00083FE0E2102464846FFF7A4FE48462A4A96
:106AE0000F21FFF79FFE07204DE7AB6A9C42B3D111
:106AF000042202990027A318A962EF622A636B633C
:106B00002368BB421FDB012301932EE748460D217A
:106B1000FFF762FE2862069B6B62AC62062032E7DA
:106B20002046FFF76FFC04340646AC632846AFF3FB
:106B3000008000283FF426AF484632460F21FFF779
:106B400071FE07201FE70846013004EB8000FFF7C5
:106B500059FC0F2102464846FFF764FE48462A4684
:106B60003946FFF75FFE07200DE707460D2148462F
:106B7000FFF732FE022F2862CDD12B46069A43F84A
:106B80002C2F6B62C9E700BF0000000000238FE6D6
:106B900001238DE602238BE6F0B50446C5B0042937
:106BA0000DD8DFE801F057030C310F00012B4FEA3D
:106BB000124695B266D17219102A40F29F800220C7
:106BC00045B0F0BD002BFAD1102AF8D82368D806BA
:106BD00000F1C98022AE3046019200F077F9A06B37
:106BE000019A0023012505FA03F1114203D001683F
:106BF000043046F823100133042BF4D1A06330464F
:106C000000F05AF90020DBE7032BD8D1150C97B21E
:106C1000EB19102BD3D823681E0700F1B88022AEE1
:106C200030467F0000F026F906EBC5027B1EA56BFF
:106C300057B12946043A51F8040B013B42F8040FBE
:106C4000581CF8D105EB87053046A56300F0F0F835
:106C50000020B5E7002BB2D1A56B97B2201D01260D
:106C600006FA03F1394203F1010302D02968043521
:106C70000160102B00F10400F2D112F400503BD15E
:106C8000A5639DE7052B9AD17719202F97D80F2E52
:106C900065D92F46002D48D12A460027002AA06B2F
:106CA00071DD00EBC202014644A800EBC6008C383F
:106CB00051F8045B914240F8045FF9D1084697B15E
:106CC0003246102E44A938BF102201EBC202A2F5B1
:106CD000C4727900043A00EB810150F8045B8142F0
:106CE00042F8045FF9D1012B47D00F2EA16332D9AE
:106CF00017B102A800F094F8002061E70F2E3FF6CC
:106D00005EAF00272268D1070DD522F00101052BC7
:106D100021600193204652D022F0030240F8482B14
:106D200000F072F8019B002F51D02268510736D431
:106D3000012B3ED00F2E06D822A8019300F06CF84C
:106D4000019B002FA8D002A8019300F06DF8019BD1
:106D5000C6F11002A2E722A800F05AF8C8E7102FE7
:106D6000CFD9103FCEE723F01003236004F5E8707D
:106D7000019200F0ABF8019A2CE70431A16322A83C
:106D800000F03EF8B8E7002F9AD10146ABE723F0B8
:106D90000803236004F5A87000F06CF83FE7204674
:106DA00022F0040240F8D02B019300F03DF8019B43
:106DB000BEE722A8019300F027F8019BC8E741F045
:106DC000020140F8481B00F027F8019BABE7012BBC
:106DD00003D00F2E3FF660AFAEE722A8019300F07C
:106DE00013F8019B58E700BF00F1340191E8380027
:106DF0009C46A6464CF8045D90E8FF0FE54600BDB2
:106E000090EC210B704700BF80EC210B704700BF56
:106E100090EC200B704700BF80EC200B704700BF48
:106E2000D0EC200B704700BFC0EC200B704700BFB8
:106E3000F0EC0201F0EC0211F0EC0221F0EC023176
:106E4000F0EC0241F0EC0251F0EC0261F0EC027166
:106E5000F0EC0281F0EC0291F0EC02A1F0EC02B156
:106E6000F0EC02C1F0EC02D1F0EC02E1F0EC02F146
:106E7000704700BFE0EC0201E0EC0211E0EC0221FF
:106E8000E0EC0231E0EC0241E0EC0251E0EC0261A6
:106E9000E0EC0271E0EC0281E0EC0291E0EC02A196
:106EA000E0EC02B1E0EC02C1E0EC02D1E0EC02E186
:106EB000E0EC02F1704700BFB0FC0181B0FC019131
:106EC000B0FC01A1B0FC01B1704700BFA0FC018182
:106ED000A0FC0191A0FC01A1A0FC01B1704700BF82
:106EE000EC4600B52DE900502DE9FF1F4FF00003DF
:106EF0002DE90C0001A9FFF7E7FBDDF840E012B037
:106F0000704700BFEC4600B52DE900502DE9FF1F8A
:106F10004FF000032DE90C0001A9FFF70FFCDDF88D
:106F200040E012B0704700BFEC4600B52DE90050BC
:106F30002DE9FF1F4FF000032DE90C0001A9FFF719
:106F40001FFCDDF840E012B0704700BFEC4600B512
:106F50002DE900502DE9FF1F4FF000032DE90C0033
:106F600001ABFFF7E1FBDDF840E012B0704700BF76
:106F7000EC4600B52DE900502DE9FF1F4FF000034E
:106F80002DE90C0001AAFFF75BFCDDF840E012B030
:106F9000704700BF037A1BB9437A43B9B0207047EA
:106FA0005A1E036802721A020260180E7047426885
:106FB000013B10B4437213680321141D01721A02BD
:106FC0004460026010BC180E704700BF00B585B069
:106FD00003AA0023009219460C22FFF7E3FB039853
:106FE00005B05DF804FB00BFF0E700BF2DE9F043FA
:106FF00006460D4685B04FF000082846FFF7CAFF49
:10700000B028044600F0B48020F07F0313F0FF03A3
:1070100020D000F0F003802B7AD0902B35D0A02B1D
:1070200048D0B02B5CD0C02B00F0898000F0F80372
:10703000D02B0BD100F00702013242F400220523CD
:1070400001213046FFF7A8FD0028D6D0092005B061
:10705000BDE8F0830DF10C0919468700CDF80090CA
:107060000D223046FFF79EFBFFB2039B04376006FC
:107070004CBFDF1BFF180023CDF8009019460D22EE
:1070800030460397FFF7B4FBB7E700F00D030D2B75
:10709000DCD003AF002300F00F0219460097304602
:1070A000FFF780FB0023009719460D223046FFF7BB
:1070B0009FFBA2E7C2434FF47F6302F0070243FA4B
:1070C00002F2010702EA03024FF0000348BF42F454
:1070D000804219463046FFF75FFD0028B6D18CE7A5
:1070E000B1284AD0B22853D0B32800F0818000F0F4
:1070F000FC03B42BAAD000F007020132012342F4B2
:10710000002219463046FFF747FD00289ED174E75C
:107110002846FFF73FFF24022043B0F5004F95D0EB
:1071200004010023A2B219463046FFF735FD0028BE
:107130008CD114F4004F18BF4FF001085DE7C6284A
:1071400062D0C7286CD000F0F803C02B7BD0C828D1
:1071500000F09180C9287FF479AF2846FFF71AFF25
:10716000020300F00F0002F470220130024366E7D0
:10717000B8F1000F6ED0002069E72846FFF70AFF3C
:10718000024600283FF462AF10F0F003B9D05DE78B
:1071900000230DF10C090D221946CDF80090304660
:1071A000FFF700FB2846FFF7F5FE02064FF002044A
:1071B0000CD5039B00F07F00A040034428460393B6
:1071C000FFF7E8FE030604F10704F2D4039B00F086
:1071D0007F0000FA04F203F5017400231444CDF893
:1071E000009019460D2230460394FFF701FB04E797
:1071F0002846FFF7CFFE010300F00F0001F47021D5
:10720000421C01230A437CE72846FFF7C3FE010323
:1072100000F00F0001F47021421C03230A4370E7C1
:107220002846FFF7B7FE024600283FF40FAF10F0E4
:10723000F0037FF40BAF04213046FFF7ADFC0028CC
:107240007FF404AFD9E600F00F020132032342F4C9
:10725000202256E703AC43460E22414600943046B6
:10726000FFF7A0FA0094304643460F224146FFF74D
:10727000BFFA4046EBE62846FFF78CFE00F0F0022E
:1072800000F00F031032013343EA0232D7E600BFA9
:1072900010B5C36C84B003205A688DF80C00DC79FB
:1072A00012020833084601A901928DF80D4002939D
:1072B000FFF79CFE04B010BD08B5FFF795FE806C8B
:1072C00008BD00BF08B5FFF78FFEC36CD87903EB8C
:1072D0008000083008BD00BF08B5FDF7B1FC00BF55
:1072E00008B5FFF7F9FF00BF002100F095BE0A22A4
:1072F000002100F02BBF10B5431E0A44914204D078
:1073000011F8014B03F8014FF8E710BD03460244A2
:10731000934202D003F8011BFAE770470EB400B5A0
:107320004FF402719CB0ADF814106FF0004104915D
:1073300007914FF6FF711DAB02900690084853F875
:10734000042BADF81610006802A9019301F010FF9C
:10735000029B00221A701CB05DF804EB03B070476A
:10736000E0010020F8B506460F4616F8014B01F083
:1073700031FA2044437817F8015B03F00303012B33
:1073800008BF203401F026FA2844437803F00303B1
:10739000012B14BF2B4605F12003E01A01D1002B6D
:1073A000E3D1F8BD034611F8012B03F8012B002AA5
:1073B000F9D17047034613F8012B002AFBD1181AA4
:1073C00001387047034610B542B111F8014B013A3C
:1073D00003F8014B002CF7D11A4400E010BD934292
:1073E00002D003F8014BFAE710BD2DE9F0410F463A
:1073F000904601F0D3FC04460D46B8F1000F11D0C1
:10740000C7F30A53C3F16B03002B0BDD1B0503F11C
:107410007F55002405F5401522462B46FEF72EFA2F
:10742000BDE8F08120462946BDE8F081000000005B
:107430002DE9F04F1F469FB00023824638461A932D
:107440000691159201F0D0F906460068FFF7B2FFE9
:107450000446069B4FF000084FF000091993199B52
:107460001A780D2A05D8092A13D2002A00F096812D
:1074700011E02B2A04D02D2A04D0202A0BD108E0B9
:10748000002200E001220E925A1C19925B7823B967
:1074900084E10133E2E700230E93199D2B78302B12
:1074A0005DD16B78582B01D0782B4DD10E9B029774
:1074B00001931AAB00939E4A1BAB19A9504600F0EA
:1074C000A6FE10F00706044600F07185062E05D1D1
:1074D0000135002319950E9300F069BD1A9A3AB14F
:1074E00035211CA801F041FD1A99504601F0C5F95B
:1074F000062E22D8DFE806F0040D08181D0D040042
:107500004FF00009C84618E0DDF87080DDF874908F
:1075100013E01D9B1B9A23F4801302F23342DDF823
:10752000708043EA025908E0DFF808924FF0000843
:1075300003E06FF000494FF0FF38210740F1378535
:1075400049F0004900F033BD199B5A1C19925B7831
:10755000302BF9D0002B00F02A85012300E0002316
:107560000893199B0A22099300239B4605930493D1
:1075700019980578A5F13003D9B209290ED80499D4
:1075800001300829C9BF059902FB0B3B02FB0133FF
:107590000593049B199001330493E9E7224631686F
:1075A00002F086F828B100202B460246049D0146D1
:1075B0004DE0199B1A191992049A1B5D002A3FD1BC
:1075C0001046302B05D1199B01305A1C19925B785B
:1075D000F7E7A3F13102082A3FD8199A0992024627
:1075E00000200546303B00F1010123D00A44294622
:1075F0002E180A24B1420CD001314F1E082F02DC94
:1076000004FB0BFBF6E71029DEBF059F67430597D8
:10761000F0E72844082800F1010503DC0A2101FBFA
:107620000B3B06E0102DDFBF05980A2101FB00335C
:1076300005930021199B581C19905B78084601E0BE
:107640000246049DA3F130010929CBD90121652B04
:1076500001D0452B54D16DB904E0652B40F0B584C1
:107660000022012128B9089B002B00F097800546D5
:1076700000E00025199B069301331993069B5B7864
:107680002B2B06D02D2B02D00024079408E00123D9
:1076900000E000230793069B02331993069B9B7817
:1076A000A3F13004092C29D8302B04D1199B5C1C80
:1076B00019945B78F8E7A3F13104082C20D8A3F1E2
:1076C0003007199B4FF00A0E1E46199B5C1C19943B
:1076D0005B78A3F1300CBCF1090F03D80EFB073720
:1076E000303FF2E7A41B082C44F61F6402DCBC42C6
:1076F000A8BF3C46079E26B1644202E0069C19944E
:107700000024002D54D1002840F05184089A002A0A
:1077100040F04D84002941D14E2B20D002DC492B72
:107720000AD03BE0692B07D06E2B18D036E000BFA3
:1077300048AB00080000F07FAB4919A800F099FFA2
:1077400060B3199BA949013B19A8199300F091FF57
:1077500010B9199B01331993DFF8AC921AE0A449D0
:1077600019A800F086FFC8B1199B1B78282B0FD1F0
:107770001CAAA04919A800F08FFF052808D11D9B5D
:10778000DDF8708043F0FF4949F4E00900F00FBCD8
:10779000DFF878924FF0000800F009BC069B1993BF
:1077A000159B002B00F00E8400230E9300F001BC0B
:1077B000049BA71A002B08BF2B462C46102D5846B9
:1077C000A8BF10240493FDF7E3FF092C80468946E7
:1077D00013DD894B03EBC40353E91223FEF74EF884
:1077E000804605988946FDF7D3FF02460B46404682
:1077F0004946FDF791FE804689460F2D33DC002F68
:1078000000F0D58322DD162F07DC7B4D424605EBC9
:10781000C7014B46D1E9000113E0C5F125039F42A2
:1078200021DC754CC5F10F0504EBC5017D1B4246FB
:10783000D1E900014B4604EBC504FEF71FF8D4E97B
:107840000023FEF71BF880468946B0E317F1160FB8
:1078500009DB694D4046A5EBC703D3E90023494640
:10786000FEF736F9EFE72C1B3C44002C5DDD14F0ED
:107870000F010AD0604B424603EBC101D1E9000180
:107880004B46FDF7FBFF8046894634F00F0400F0BD
:10789000C180B4F59A7F0FDD4FF0000BCDF810B02A
:1078A000CDF81CB0CDF818B02223CAF80030DFF8AC
:1078B00058914FF0000889E14046494600234F4E59
:1078C00024110593012C0CDDE20704D5D6E9002331
:1078D000FDF7D4FF0123059A6410013205920836A2
:1078E000F0E70BB180468946444B059AA9F15479DB
:1078F00003EBC201D1E9000142464B46FDF7BEFF52
:1079000021F0004389460A461B0D3D491B058B4269
:107910008046C1D8A1F580118B4286BFDFF8F09078
:107920004FF0FF3802F1547974E073D0644214F0E0
:107930000F020AD0304B404603EBC2034946D3E95D
:107940000023FEF7C5F880468946241162D01F2C1B
:1079500008DD4FF0000BCDF810B0CDF81CB0CDF81D
:1079600018B02CE14046494614F0100F0CBF00231C
:107970006A23244E05930023002C09DDE20704D579
:10798000D6E90023FDF77AFF012364100836F3E7F8
:107990000BB180468946059BEBB1C9F30A53C3F18D
:1079A0006B03002B494616DD1F2B0EDD342BDEBF8B
:1079B000203B4FF0FF3202FA03F34FF00008CCBF38
:1079C0004FF05C7903EA010905E04FF0FF3202FA5B
:1079D00003F303EA0808002200234046494601F069
:1079E0008FFF0028B5D117E05CAB00085FAB000843
:1079F00065AB000868AB000888AB000850AC000815
:107A00000000A07C20AB00080000F07F0000F8FF21
:107A1000FFFFEF7F00230593CDF800B02B46049ABB
:107A20000999504600F07BFF079000283FF434AFDF
:107A3000002FC7F10003A8BF00230F934FF0000BE6
:107A400027EAE7731493CDF810B0079B50465968A6
:107A500000F0DEFE069000283FF426AF079B0C30B6
:107A60001A6903F10C0102329200FFF744FC1CABCF
:107A700001931BAB009342464B465046CDE90A8921
:107A800001F0FDF91A9000283FF40EAF0121504695
:107A900000F0D0FF049000283FF406AF1B9B05992F
:107AA000002BACBF0F9A149A1C9CACBFD618D21AEC
:107AB000A3EB01032344B14903F1FF33ACBF149A94
:107AC0000F9E8B42C4F1360480F28580C91A1F29AB
:107AD000C8BFAB4D4FF00107D4BF07FA01F3ED1A51
:107AE000A4EB0104D9BF0993002507FA05F509970E
:107AF0003719059BBE4214441C443346A8BF3B467D
:107B0000A342A8BF2346002BC2BFFF1AE41AF61AED
:107B10000F9B002B63D1002F7ADC149B002B40F0CD
:107B20008180002C00F38880002E00F38F80069A5D
:107B30001A99504601F0D3F8834600283FF4B4AEBA
:107B4000C3680024C4600499089301F0ACF8A04213
:107B500080F28B80089B002B40F00282B8F1000F6E
:107B600040F0FE81C9F31303002B40F0F98129F0A6
:107B700000431B0D1B05B3F1D66F40F2F181DBF81A
:107B80001430002B6CD059460122504601F03AF8CF
:107B90000499834601F087F8002840F3E18129F039
:107BA0000043059A1B0D1B05002A00F08D80B3F1E0
:107BB000D66F00F38980B3F15C7F00F3D381222379
:107BC0004FF000084FF00009CAF80030079B002B67
:107BD00040F0D981EBE101230025099388E71A469B
:107BE0000499504600F0C0FF049000283FF45CAEBA
:107BF00001461A9A504600F026FF089000283FF4EC
:107C000053AE1A99504600F038FE089B1A9382E74B
:107C10003A461A99504600F0F5FF1A9000287FF472
:107C20007CAF41E6149A0699504600F09DFF0690FD
:107C300000287FF476AF37E622460699504600F0DA
:107C4000E1FF069000287FF46FAF2DE632460499DD
:107C5000504600F0D7FF049000287FF468AF23E679
:107C6000DBF81030012B8EDC7AE161D1089AC9F380
:107C7000130322B343494A468B422ED1059B41460A
:107C800063B1414B1340B3F1D46F07D81B0DC3F15F
:107C90006B034FF0FF3000FA03F301E04FF0FF33C6
:107CA0008B421AD139498A4202D101333FF4FCADEB
:107CB000354B4FF00008134003F5801950E163B9CC
:107CC000B8F1000F09D16AE7A3F580136FEA1359E1
:107CD0004FF0FF386FEA095942E115B115EA090F73
:107CE00002E0099B13EA080F00F03A81089B059A0D
:107CF0004046494653B1FFF778FB02460B46DDE9A3
:107D00000A01FDF709FC8046894629E1FFF76DFB72
:107D100002460B46DDE90A01FDF7FCFB00220023C9
:107D20008046894601F0ECFD00287FF448AF17E15A
:107D30000499584601F0F1F800224FF080430646BE
:107D40000F4601F0F1FD00283FD0089B13B100263B
:107D50000F4F10E0B8F1000F03D1C9F313033BB983
:107D60001AE0B8F1010F03D1B9F1000F3FF427AFCA
:107D7000084F00260024064D3CE000BF02FCFFFF38
:107D8000E2FBFFFFFFFF0F000000F07FFFFFEF7F30
:107D90000000F03F0000F0BF0022994B304639460A
:107DA00001F0B8FD40B90022964B30463946FDF748
:107DB00065FD04460D4601E0089C924D05F1004327
:107DC00016941793DDE9166714E08E4B00223046B7
:107DD0003946FDF753FD089B04460D4623B901F1D2
:107DE00000431090119303E002460B46CDE91023A7
:107DF000DDE9106729F000431B0D1B050993099A63
:107E0000814B9A422BD1DDE90A23A9F154794046EE
:107E10004946CDE90C2300F0C1FF02460B4630462F
:107E20003946FDF72BFD42464B46FDF775FB21F029
:107E300000431B0D754A1B05934280460CD9744BB9
:107E40000D9A9A4203D10C9B01333FF42DADDFF81C
:107E5000C0914FF0FF3872E001F1547939E0059B91
:107E60003BB3099BB3F1D46F23D85DA3D3E90023BF
:107E70002046294601F058FDB8B129462046FDF7B5
:107E800037FF002808BF0120FDF782FC089B04464D
:107E90000D4623B901F100431290139303E002460B
:107EA0000B46CDE91223DDE91267099A07F1D66383
:107EB0009F1ADDE90A0100F071FF02460B463046C9
:107EC0003946FDF7DBFCDDE90A23FDF725FB80469B
:107ED0008946059B9BBB29F000431B0D099A1B0596
:107EE0009A424E462BD129462046FDF7D9FEFDF792
:107EF0005FFC0B46024629462046FDF70BFB089B1C
:107F000004460D462BB9B8F1000F02D1C9F3130690
:107F10007EB135A3D3E900232046294601F0FAFCBF
:107F200088BB33A3D3E900232046294601F010FD86
:107F300004E031A3D3E9002301F0ECFC18BB1A994B
:107F4000504600F09AFC0699504600F096FC0499C1
:107F5000504600F092FC5946504600F08EFC74E505
:107F6000059B83B12B4B40460D9300230C93494650
:107F7000DDE90C23FDF782FC8046894619B910B96A
:107F80002223CAF800301A99504600F076FC069970
:107F9000504600F072FC0499504600F06EFC0799C0
:107FA000504600F06AFC5946504600F066FC159BAE
:107FB00013B1199B159A13600E9B1BB1424609F130
:107FC000004307E042464B4604E000252A460121D3
:107FD000FFF73FBB104619461FB0BDE8F08F00BF4A
:107FE0000000C0FFFFFFDF419535A094FFFFDF3F9A
:107FF00035E5AF350000E03F9535A094FFFFCF3F5A
:108000000000F03F0000E03F0000E07FFFFF9F7CAA
:10801000FFFFEF7F00005039064B10B41C68064A82
:10802000236A002B08BF13460A460146204610BCAF
:10803000FFF7FEB9E0010020E40100202DE9F04740
:108040008046894692461E460F463D46089815F8DA
:10805000014B00F0BBFB2044427802F0080202F022
:10806000FF030AB12F46F0E72D2C03D1BD1C7C780D
:10807000012303E02B2C04BF7C78BD1C16B1102E0D
:108080000AD15EE0302C5AD12A7802F0DF02582A59
:1080900050D16C7810260235002B14BF4FF00042EF
:1080A0006FF00042B2FBF6FE06FB1E2100221046D6
:1080B000A4F13007092F01D83C460AE0A4F141079A
:1080C000192F01D8373C04E0A4F16107192F13D808
:1080D000573CA64210DD571C0BD0864507D301D173
:1080E000A14203DB00FB0640012202E070464FF094
:1080F000FF3215F8014BDBE7511C0ED1002B4FF07E
:10810000220314BF4FF000406FF00040C8F8003069
:10811000BAF1000F07D1BDE8F08703B14042BAF1D0
:10812000000F11D00AB1013D00E04D46CAF80050E1
:10813000BDE8F0873024002EAED10826ACE70A2631
:10814000AAE7302CA0D0A7E7BDE8F087084B37B5E9
:108150001C68084D236A002B08BF2B46009313466A
:108160000A4601462046FFF769FF03B030BD00BF55
:10817000E0010020E4010020F0B506694B11B34294
:1081800000F1140527DA11F01F0105EB860605EB57
:10819000830201D1294616E0141D55F823202B46F1
:1081A000C1F1200ECA40B44209D2276807FA0EF77F
:1081B0003A4343F8042B54F8042BCA40F3E71A60FF
:1081C00052B1043308E0B2420B4605D252F8043BE8
:1081D00041F8043BF7E72B465B1B9B10036103B997
:1081E0004361F0BDA0F13003092B01D820380AE02B
:1081F000A0F16103052B01D8473804E0A0F1410349
:10820000052B02D82738C0B27047002070472DE9EF
:10821000F04F8BB0029016988A469046069300F075
:10822000E3FA03684FF0000B18460393FFF7C2F818
:10823000039B0190034413F8013C0793DAF80030E4
:1082400002331F4613F8010B302802D10BF1010B4A
:10825000F7E7FFF7C7FF0446E0B9019A03993846EC
:1082600001F026FA002834D1019BF85CFE18FFF7D4
:10827000B9FF80B3334618781F46302803F1010355
:10828000F9D0FFF7AFFFB0FA80F534466D094FF033
:10829000010B01E000252C463A46164630780132A3
:1082A000FFF7A0FF0028F8D1019A0399304601F0AA
:1082B000FFF950B954B9019BF4182246164630789C
:1082C0000132FFF78FFF0028F8D134B1A41BA400BE
:1082D00003E03E4600E0044601253378502B01D0F0
:1082E000702B2AD173782B2B08D02D2B03D0711C27
:1082F0004FF0000905E04FF0010901E04FF00009DF
:10830000B11C0878FFF76EFF431EDBB2182B14D8A0
:10831000A0F1100211F8010FFFF764FF431EDBB25A
:10832000182B04D80A2303FB0202103AF2E7B9F132
:10833000000F00D05242144400E03146CAF8001049
:108340002DB1BBF1000F14BF002006207CE12946AF
:10835000F31B013B072B02DD01315B10FAE70298AA
:1083600000F056FA4FF000090546CB46019B00F19C
:10837000140AC3F10103CDF810A00893B7422FD21D
:10838000731E0593079A16F8013C93420BD0BBF17C
:10839000200F16D1049BC3F8009004334FF000095E
:1083A0000493CB460DE0059B089A13449F42EED8F8
:1083B0001846019A0399099301F07AF9099B68B16B
:1083C000E5E716F8010CFFF70DFF00F00F0000FACB
:1083D0000BF0059B49EA00090BF1040B1E46CDE7A3
:1083E000049840F8049BCAEB000080102861470104
:1083F000484600F0D2FAD8F80060381AB04226DDBC
:10840000871B3946284600F0CAFDC8B17B1E5911AA
:1084100003F01F024FF001095AF8211009FA02F285
:108420000A420ED04B4502DC4FF0020909E0B91EAA
:10843000284600F0B4FD0028F6D04FF0030900E014
:10844000814639462846FFF797FE3C440CE009DA9E
:10845000371A29463A46029800F0D4FB0546E41B39
:1084600000F1140A4FF00009D8F808309C4208DDEA
:108470000298294600F001FA149A00231360A32001
:10848000E2E0D8F80400844253DA041BA6422EDC52
:10849000D8F80C30022B1AD0032B1CD0012B1DD185
:1084A000A6421BD1012E0BDCD8F80430069A6220BC
:1084B000136001232B61CAF80030149B1D60C3E0D8
:1084C000711E284600F06BFD0028EDD106E0159BDB
:1084D000002BE9D002E0159B002BE5D1029829463C
:1084E00000F0CBF9149A002313605020ACE0671E13
:1084F000B9F1000F06D13FB13946284600F04FFDD3
:10850000814601E04FF001097A11012307F01F07AE
:1085100003FA07F75AF8223021461F42284618BFAF
:1085200049F00209361BFFF727FE0227D8F804405E
:1085300000E00127B9F1000F00F08180D8F80C307D
:10854000022B0ED0032B10D0012B76D119F0020F85
:1085500073D0DAF8000049EA000919F0010F07D1D9
:108560006BE0159BC3F101031593159B002B64D0A1
:10857000D5F810A005F114034FEA8A0903EB0901AD
:1085800000201A68B2F1FF3F02D001321A6020E0E9
:1085900043F8040B9942F4D8AB689A4512DB69683A
:1085A0000298013100F034F983462A6905F10C0183
:1085B000023292000C30FEF79EFE2946029800F02F
:1085C0005CF95D462B695A1C2A6105EB8303012285
:1085D0005A61022F05F1140211D1D8F80030013B85
:1085E0009E4227D17111012306F01F0603FA06F6F9
:1085F00052F821301E420CBF022701271AE02B69D6
:108600009A450ADA01212846FFF7B6FDD8F8083066
:1086100001349C423FF72CAF0BE016F01F0608D048
:10862000914459F8040C00F0B8F9C6F12006B042A4
:10863000E8DB012747F0200701E047F01007384644
:10864000149B1D60069B1C600BB0BDE8F08FC2F14F
:108650000802920070B5C2F120064368056803FA6B
:1086600006F42C43D340046040F8043F8842F4D31E
:1086700070BD30B5036811F8014B01334CB11A7865
:10868000A2F14105192D98BF2032A242F3D000205B
:1086900030BD0360012030BD0B682DE9F04F5E1145
:1086A00002EB860613F01F0318BF0436351F17466A
:1086B00000228246A8462C46914685B0D0F800B0EC
:1086C000019346F8042C00921BF8011F00293CD0AE
:1086D000084603920291FFF785FD039A00BB0299B9
:1086E000202916D8009B9945EEDD444505D2072A7E
:1086F00003DC41462046FFF7AAFFBC4223D90023F2
:10870000A4F1040844F8043CCDF8009044461A460D
:10871000DAE7292948D10BF10103CAF8003014E047
:108720000132082A09F1010906DDBC42CCD9002337
:1087300044F8043C0122043C216800F00F0040EAA8
:1087400001102060C0E70822BEE7B9F1000F2BD06E
:10875000444505D2072A03DC41462046FFF777FF50
:10876000BC420CD93B4654F8042BA54243F8042BD9
:10877000F9D2002243F8042B9D42FBD20BE0019B6F
:108780004BB1C3F120024FF0FF33D34056F8042C15
:10879000134046F8043C2B6843B9BD4202D1012383
:1087A0002B6003E0043DF6E7042000E0052005B05F
:1087B000BDE8F08F034B1B68186A034B002808BF05
:1087C00018467047E0010020E4010020D0F8EC00DA
:1087D0007047000008B5034B1868FFF7EBFFD0F8AF
:1087E000EC0008BDE0010020F030704782B001B914
:1087F00001A93AB143B113780B601278101C18BF6D
:10880000012003E0104601E06FF0010002B0704764
:1088100070B5456A04460E463DB9102000F06AFF67
:108820006062456085600560C560656AEB6843B15C
:10883000636ADB6853F8260078B1026843F82620A3
:1088400017E021220421204600F0CBFB636AE86098
:10885000DB68002BECD1002070BD012101FA06F588
:108860006A1D9200204600F0BCFB0028F3D0466051
:10887000856000230361C36070BD70B5446A06461D
:108880000D463CB9102000F035FF706244608460F2
:108890000460C4603DB1736A6A68DB6853F82210F3
:1088A000296043F8225070BD2DE9F04106460C4680
:1088B0000D691F4601F1140E0023DEF8000001339C
:1088C00081B202FB0171000C0F0C02FB007089B237
:1088D00001EB00419D424FEA10474EF8041BECDCCF
:1088E000D7B1A3689D4212DB616830460131FFF7C2
:1088F0008FFF8046226904F10C01023292000C3095
:10890000FEF7F9FC21463046FFF7B7FF444604EB7B
:10891000850301355F6125612046BDE8F0812DE9C1
:10892000F843064615461F46092208330C4693FBBA
:10893000F2F3002101229A4202DA52000131FAE7F1
:108940003046FFF765FF089B092D43614FF0010397
:10895000036111DD04F10908C1462C4419F8013BFB
:108960000146303B0A223046FFF79EFFA145F5D174
:1089700008EB0504083C01E00A3409252D1B6319A6
:108980009F4208DD14F8013B0146303B0A22304685
:10899000FFF78AFFF3E7BDE8F883030C1B0413B964
:1089A0000004102300E0002310F07F4F04BF0002FA
:1089B000083310F0704F04BF0001043310F0404F33
:1089C00004BF80000233002803DB420003D5581C9B
:1089D00070471846704720207047036813F007025D
:1089E0000BD0D90722D49A074BBF5B089B080360C2
:1089F00003604CBF01200220704799B209B91B0CDB
:108A0000102213F0FF0F04BF1B0A0832190704BF1E
:108A10001B090432990704BF9B080232D90702D40C
:108A20005B0805D001320360104670470020704794
:108A30002020704710B50C460121FFF7E9FE012206
:108A40004461026110BD2DE9F74F14460A6923699C
:108A500088469A42BEBF0B46A0461C46D8F8107006
:108A6000D4F81090D8F80830D8F8041007EB0906AD
:108A70009E42C8BF0131FFF7CBFE00F114052B4623
:108A800005EB860C0022634502D243F8042BFAE77B
:108A900004F1140208F1140102EB890301EB8707CA
:108AA0000093009B0192934257D9B2F800B0BBF1FA
:108AB000000F23D08946AE464FF0000859F8044B0A
:108AC000BEF800A0A3B20BFB03A34FEA144ADEF8E2
:108AD000004043444FEA14480BFB0A84F24604EB7F
:108AE00013449BB243EA04434F454FEA14484AF803
:108AF000043B01D9D646E1E7CEF80480019B04325D
:108B0000B3F802A0BAF1000F21D02C4689462B6899
:108B10004FF00008B9F800E0B4F802B09BB20AFBCD
:108B20000EBEA346F04443EA08434BF8043B59F811
:108B3000043BB4F804E01B0C0AFB03E34F4503EBD2
:108B400018434FEA134801D95C46E3E763600435F4
:108B5000A7E75CF8043D13B9013E002EF9DC06617D
:108B600003B0BDE8F08F00002DE9F843154612F080
:108B7000030206460F4607D0214C013A002354F861
:108B80002220FFF791FE0746AD1036D0746A3CB93B
:108B9000102000F0AFFD7062446084600460C46027
:108BA000D6F82480D8F808404CB940F271213046FC
:108BB000FFF740FF04460023C8F8080003604FF0A9
:108BC0000008EB070AD5394622463046FFF73BFF3F
:108BD000814639463046FFF750FE4F466D100CD0A7
:108BE000206808B10446ECE7224621463046FFF7EC
:108BF0002AFF2060C0F80080F4E73846BDE8F8831B
:108C000078AC00082DE9F0470C46074691462669E6
:108C10004FEA621A56444968A368751CAB4202DAEF
:108C200001315B00FAE73846FFF7F2FD002380468A
:108C30001A4600F11401534503DA41F823200133A9
:108C4000F9E72AEAEA73206901EB830319F01F09A7
:108C500004F1140101EB800E14D0C9F1200C0022A4
:108C600008689A4600FA09F0024343F8042B51F8C9
:108C7000042B8E4522FA0CF2F2D8CAF8042042B135
:108C8000B51C06E0043B51F8042B8E4543F8042F35
:108C9000F9D8013D3846C8F810502146FFF7EDFDE0
:108CA0004046BDE8F08703690A6910B59B1A11D1E7
:108CB00092001430143183180A4453F8044D52F8CA
:108CC000041D8C4202D007D3012010BD9842F4D37A
:108CD000002010BD184610BD4FF0FF3010BD2DE92B
:108CE000F8430C460746114620461546FFF7DBFFC2
:108CF000061E08D131463846FFF78AFD012303617D
:108D00004661BDE8F883BCBF23462C4638466168FF
:108D1000BABF1D4601260026FFF77AFD2B69C66003
:108D2000266905F1140904F1140101EB860709EB2A
:108D3000830800F114054FF0000C51F8042B59F88A
:108D4000044B93B29C44A3B2240CC3EB0C03C4EBBE
:108D5000124202EB23429BB24FEA224CC84543EA3F
:108D600002428E4645F8042BE7D8BE450ED25EF887
:108D7000041B8AB26244131403EB114392B242EA19
:108D800003424FEA234C45F8042BEEE755F8043D27
:108D90000BB9013EFAE70661BDE8F883104B0B40C2
:108DA000A3F15073002B02DD0020194670475B428F
:108DB0001B15132B4FF000004FF0000104DC4FF4A3
:108DC000002242FA03F17047143B1E2B4FF00102C0
:108DD000CEBF1346C3F11F0302FA03F318467047D0
:108DE0000000F07FF8B5056900F1140606EB850573
:108DF00055F8044C2F1F2046FFF7CFFDC0F120038C
:108E00000A280B6014DCC0F10B0E24FA0EF1BE42EE
:108E100041F07F5334BF55F8081C0021153004FA87
:108E200000F021FA0EF143F4401340EA010223E07E
:108E3000BE423ABFA5F1080755F8081C00210B38BF
:108E400015D08440C0F1200544F07F5444F4401410
:108E5000B74221FA05FE44EA0E038CBF57F8044CD2
:108E6000002401FA00F0EC4040EA040204E00A4663
:108E700044F07F5343F4401310461946F8BD2DE9E2
:108E8000F3411C4601219046089E099DFFF7C0FC56
:108E9000C4F31302C4F30A5407460CB142F480121F
:108EA0000192B8F1000F19D002A840F8088DFFF721
:108EB00094FD009B48B1019AC0F1200102FA01F132
:108EC0000B43C2407B61019200E07B61019B002B60
:108ED00014BF02210121BB61396107E001A8FFF73E
:108EE0007CFD019B01217B613961203034B1A4F20A
:108EF000334404443460C0F1350009E0A0F232404C
:108F000007EB810330601869FFF747FDC0EB4110A4
:108F10002860384602B0BDE8F0812DE9F743884665
:108F200069468146FFF75EFF0D46044601A94046AB
:108F3000FFF758FF0F460646D9F81030D8F8102032
:108F400020469A1A9DE80A00C91A01EB4213002B29
:108F5000CCBF05EB0355A7EB035732463B462946EA
:108F6000FCF7B6FD03B0BDE8F083013910B5491137
:108F70001469013102F1140300EB810103EB840455
:108F8000A342024604D253F8042B40F8042BF7E71F
:108F900000238A4202D242F8043BFAE710BD00F1F6
:108FA000140200694B11984210B50CDB0CDD11F076
:108FB0001F0109D052F8234024FA01F000FA01F110
:108FC0008C420CD100E0034602EB8303934204D9A8
:108FD00053F8041D0029F9D001E0002010BD012044
:108FE00010BD38B502FB01F4214600F009F8054632
:108FF00018B122460021FEF789F9284638BD000045
:1090000070B5CD1C25F0030508350C2D38BF0C2597
:10901000002D064601DBA94202D90C23336046E04D
:1090200000F099FB234B1C681A462146A1B10B683E
:109030005B1B0ED40B2B03D90B60CC18CD501EE05C
:109040008C420BBF63684B681360636018BF0C46AB
:1090500015E00C464968E9E7174C23681BB9304610
:1090600000F016FB20602946304600F011FB431C3F
:1090700018D0C41C24F00304A0420DD12560304652
:1090800000F06AFB04F10B00231D20F00700C31A57
:109090000ED05A42E25070BD211A304600F0F8FA64
:1090A0000130EBD10C233360304600F055FB00203B
:1090B00070BD00BF74060020700600202DE9F04747
:1090C0008E6882469E420C46914698463ED88A89D2
:1090D00012F4906F3AD02568096902236F1A656906
:1090E00005EB450595FBF3F57B1C43449D4238BFDA
:1090F0001D4653050FD52946FFF782FF064698B156
:109100003A462169FEF7F7F8A38923F4906343F008
:109110008003A38113E02A4600F06CFB064670B979
:109120002169504600F01AFB0C23CAF80030A389CD
:109130004FF0FF3043F04003A381BDE8F087266184
:109140003E44266046466561ED1BA560464528BF46
:10915000464649463246206800F0E2FAA3680020FD
:109160009B1BA36023681E442660BDE8F0870000B7
:109170002DE9F04F9DB003938B8980461C060D4668
:1091800016460DD50B695BB94021FFF739FF286002
:10919000286118B90C23C8F80030CDE040236B617A
:1091A0000023099320238DF82930DFF89CB1302368
:1091B0008DF82A3037463C4614F8013B1BB9B7EB13
:1091C000060910D003E0252BF9D02746F3E74B46DC
:1091D000324629464046FFF771FF013000F0A78074
:1091E000099B4B4409933B78002B00F0A08000239F
:1091F0004FF0FF3204930793059206938DF8533096
:109200001A930126052221784E4800F07BFA671C4C
:10921000049B38B14B4A3C46801A06FA00F01843CA
:109220000490EFE7D90644BF20228DF853201A0797
:1092300044BF2B228DF8532022782A2A03D0079A84
:1092400000210A200BE0039A111D12680391002AE5
:1092500010DA524243F00200079204900BE02746D6
:109260003B780134303B092B03D800FB023201214B
:10927000F5E701B107923B782E2B1ED17B782A2B84
:109280000AD1039B02371A1D1B680392002BB8BF3B
:109290004FF0FF33059310E0002319460593781C27
:1092A0000A2407463A780130303A092A03D804FBE9
:1092B00001210123F5E703B1059103223978224802
:1092C00000F020FA40B14023CBEB000003FA00F09D
:1092D000049B013718430490397806221B487E1CF2
:1092E0008DF8281000F00EFA88B1194B33B9039BA2
:1092F000073323F007030833039314E003AB009311
:109300002A46144B04A94046AFF3008007E003ABA4
:1093100000932A460F4B04A9404600F093F8B0F1A1
:10932000FF3F824603D0099B5344099342E7AB8930
:109330005B0601D4099801E04FF0FF301DB0BDE895
:10934000F08F00BF84AC00088AAC00088EAC000827
:1093500000000000BD9000082DE9F04791461F462F
:109360000A698B6806469342B8BF1346C9F80030B5
:1093700091F843200C46DDF8208012B10133C9F882
:1093800000302368990642BFD9F800300233C9F88B
:109390000030256815F0060510D104F1190A07E020
:1093A0000123524639463046C04701301AD00135B4
:1093B000E368D9F800209B1A9D42F1DB94F8433012
:1093C0002268003318BF012392060FD5E118302020
:1093D00081F843005A1C94F845102244023382F865
:1093E000431003E04FF0FF30BDE8F08704F1430283
:1093F00039463046C0470130F4D02268D9F80050D1
:10940000E36802F00602042A08BF5D1B2269A36814
:109410000CBF25EAE57500259342C4BF9B1AED18E1
:109420004FF000091A344D4509D001232246394630
:109430003046C0470130D5D009F10109F3E70020DB
:10944000BDE8F0872DE9F04317460A7E85B06E2A05
:10945000984606460C460C9B01F1430E00F0AE8088
:1094600011D8632A22D009D8002A00F0BB80582ADC
:1094700040F0CA8081F84520834955E0642A1ED017
:10948000692A1CD0C0E0732A00F0B08009D86F2A86
:109490002ED0702A40F0B8800A6842F020020A609C
:1094A0003EE0752A24D0782A3AD0ADE01A6801F15E
:1094B0004205111D1960136884F84230A8E0216844
:1094C0001A6811F0800F02D0111D196008E011F028
:1094D000400F02F10401196002D0B2F9003000E03F
:1094E0001368002B3CDA2D225B4284F8432037E0DE
:1094F00021681A6811F0800F02D0111D196007E071
:1095000011F0400F02F10401196001D0138800E04E
:109510001368227E5C496F2A14BF0A2208221BE0CE
:1095200078225A4984F845202268186812F0800F82
:1095300000F104051D6003D1550601D5038800E044
:109540000368D00744BF42F0200222601BB92268A2
:1095500022F0200222601022002084F8430001E063
:1095600049490A226568002DA56008DB206820F0C3
:10957000040020602BB9002D7DD175460CE0002B36
:1095800079D07546B3FBF2F002FB1033CB5C05F8E3
:10959000013D03460028F5D1082A0BD12368DA07DC
:1095A00008D5236962689A42DEBF302305F8013C82
:1095B00005F1FF35C5EB0E0323612EE008681A683C
:1095C00010F0800F496903D0101D1860136808E07F
:1095D00010F0400F02F104001860136801D01980E8
:1095E00000E0196000232361754616E01A68111D1A
:1095F0001960156800216268284600F083F808B1F8
:10960000401B6060636804E004F1420584F8422076
:1096100001232361002384F84330CDF800803B46CA
:1096200003AA21463046FFF797FE013002D14FF0E2
:10963000FF3026E023692A4639463046C0470130CC
:10964000F5D023689B0710D5002504F1190907E020
:1096500001234A4639463046C0470130E7D001353C
:10966000E368039A9B1A9D42F2DBE068039B9842F1
:10967000B8BF184605E00B7804F1420584F8423083
:109680008AE705B0BDE8F08395AC0008A6AC0008F9
:1096900038B5064C0023054608462360FBF7C2FA9E
:1096A000431C02D1236803B12B6038BD540A00204B
:1096B00030B582B1451E013915F8013F11F8014F4F
:1096C000A34206D1EC431444E04201D0002BF3D175
:1096D0001C46181B30BD104630BD49B1FF2A85BF5E
:1096E0008A2303600A704FF0FF3098BF0120704753
:1096F00008467047024B01461868FFF781BC00BF5F
:10970000E001002010B5C9B202449042034605D0E2
:109710001C7801308C42F8D1184610BD002010BDD5
:10972000884210B501EB020301D8421E0BE09842BB
:10973000FBD28118D21AD34204D013F8014D01F89C
:10974000014DF8E710BD994204D011F8014B02F821
:10975000014FF8E710BD70477047000038B5054667
:10976000002944D051F8043C0C1F002BB8BFE4186A
:10977000FFF7F1FF1E4A1368114613B963601460C6
:1097800030E0A3420DD92268A018834201BF1868B7
:109790005B681218226063600C6023E0A24203D869
:1097A00013465A68002AF9D118681918A1420BD13A
:1097B0002168014458188242196013D11068526818
:1097C000014419605A600DE002D90C232B6009E0B6
:1097D00021686018824201BF106852680918216030
:1097E00062605C602846BDE83840FFF7B5BF38BD11
:1097F00074060020F8B5074615460E4621B91146F5
:10980000BDE8F840FFF7FCBB1AB9FFF7A7FF2846F1
:10981000F8BD00F015F885420ED929463846FFF705
:10982000EFFB044650B131462A46FDF764FD314650
:109830003846FFF793FF01E03046F8BD2046F8BDFB
:1098400051F8040C0028BEBF091851F8043CC01898
:10985000043870474FF0FF3C06E000BF4FF0010CAA
:1098600002E000BF4FF0010C4DF804CD4FEA410C6F
:109870007FEA6C5C4FEA430C18BF7FEA6C5C1BD03C
:1098800001B050EA410C0CBF52EA430C91EA030FBD
:1098900002BF90EA020F0020704710F1000F91EA1A
:1098A000030F58BF994208BF90422CBFD8176FEAE8
:1098B000E37040F0010070474FEA410C7FEA6C5CB6
:1098C00002D150EA013C07D14FEA430C7FEA6C5CBD
:1098D000D6D152EA033CD3D05DF8040B704700BFE9
:1098E0008446104662468C461946634600E000BF37
:1098F00001B5FFF7B7FF002848BF10F1000F01BD09
:109900004DF808EDFFF7F4FF0CBF012000205DF8D3
:1099100008FB00BF4DF808EDFFF7EAFF34BF012058
:1099200000205DF808FB00BF4DF808EDFFF7E0FFF1
:1099300094BF012000205DF808FB00BF4DF808ED42
:10994000FFF7CEFF94BF012000205DF808FB00BFA9
:109950004DF808EDFFF7C4FF34BF012000205DF88B
:1099600008FB00BF4F4B0A0D636D643E0000000012
:109970004F4600004F4E206F72204F464620616CCC
:109980006C6F776564206F6E6C790A0D636D643E51
:10999000000000004F4E0A0D000000004F46460A2E
:1099A0000D00000048454C50000000003F00000042
:1099B0000A0D416C6C6F77656420636F6D6D616E2D
:1099C000647320286E6F7420636173652073656E05
:1099D000736974697665293A0A0D0D00425554542D
:1099E0004F4E206F6E2F6F6666202D207573652099
:1099F000627574746F6E20746F207475726E206F50
:109A000066660A0D000000004C454453206F6E2F1F
:109A10006F6666202D20757365204C4544730A0DD2
:109A200000000000504F574552206E202D207266D6
:109A300020706F776572206E203D203020746F207B
:109A400037202837206973206D61782E290A0D0090
:109A500041505253465251206E202D206E203D2001
:109A600061707273206672657175656E63792069C5
:109A70006E206B487A0A0D005254545946525120B8
:109A80006E202D206E203D207274747920667265E0
:109A90007175656E637920696E206B487A0A0D00D6
:109AA0004150525343414C4C20737472696E67208D
:109AB0002D20617072732063616C6C7369676E2016
:109AC00028757020746F203620636861726163743A
:109AD000657273290A0D00005254545943414C4C8D
:109AE00020737472696E67202D20727474792063FC
:109AF000616C6C7369676E2028757020746F2031FB
:109B0000352063686172616374657273290A0D00A0
:109B1000435749444D45535320737472696E67200F
:109B20002D206377206D65737361676520287570DC
:109B300020746F20323520636861726163746572CE
:109B400073290A0D0000000052545459206F6E2FE3
:109B50006F6666202D2073656E64207274747920A0
:109B60006D6573736167650A0D000000484F4C44D2
:109B70004F4646206E202D206E203D2074696D6575
:109B8000206265747765656E2074776F20727474D7
:109B900079206D6573736167657320696E207365E5
:109BA000636F6E64730A0D0042415544206E202D90
:109BB000206E203D20727474792062617564726138
:109BC000746520286D61782E20333030290A0D000D
:109BD0004442495453206E202D206E203D20727443
:109BE0007479206461746162697473202837206F0E
:109BF000722038290A0D00005342495453206E2028
:109C00002D206E203D20727474792073746F702043
:109C100062697473202831206F722032290A0D0086
:109C20005348494654206E202D206E203D20312C73
:109C3000322C332C34206F72203237302C353430B4
:109C40002C3831302C3130383020487A0A0D000061
:109C500054454D5020286F722054454D5045524177
:109C60005455524529206F6E2F6F6666202D207344
:109C7000656E642074656D706572617475726520BF
:109C8000696E2072747479206D6573736167657392
:109C90000A0D0000414C5420286F7220414C544959
:109CA0005455444529206F6E2F6F6666202D207312
:109CB000656E6420616C74697475646520696E20DA
:109CC0007274747920262061707273206D657373CD
:109CD000616765730A0D00005350454544206F6E5F
:109CE0002F6F6666202D2073656E64207370656526
:109CF0006420696E2072747479206D657373616776
:109D000065730A0D00000000434F55525345206F04
:109D10006E2F6F6666202D2073656E6420636F75ED
:109D200072736520696E2072747479206D65737327
:109D3000616765730A0D000055424154206F6E2F14
:109D40006F6666202D2073656E6420626174746591
:109D5000727920766F6C7461676520696E20727409
:109D60007479206D657373616765730A0D00000077
:109D700055535953206F6E2F6F6666202D207365E3
:109D80006E642073797374656D20766F6C7461678F
:109D90006520696E2072747479206D6573736167D4
:109DA00065730A0D0000000053415420286F722093
:109DB000534154454C4C4954455329206F6E2F6FE5
:109DC0006666202D2073656E64206865617264206C
:109DD000736174656C6C6974657320696E2072744C
:109DE0007479206D657373616765730A0D000000F7
:109DF00041505253206F6E2F6F6666202D20736581
:109E00006E642061707273206D6573736167657332
:109E10000A0D00005350454544434F5552534520C9
:109E20006F6E2F6F6666202D2073656E64207370D1
:109E300065656420616E6420636F75727365206967
:109E40006E2061707273206D657373616765730A4C
:109E50000D00000053594D424F4C20737472696ECF
:109E600067202D2073796D626F6C2066726F6D2094
:109E7000617072732073796D626F6C207461626CB3
:109E8000652028322063686172616374657273298A
:109E90000A0D000053534944206E202D206170723A
:109EA000732073736964206E203D203120746F200D
:109EB00031350A0D0000000052454C4159207374A1
:109EC00072696E67202D20617072732072656C61FB
:109ED0007973202857494445312D312C5749444541
:109EE000322D31290A0D0000545844206E202D20B7
:109EF00054782064656C6179206E203D20313020DB
:109F0000746F20353030206D730A0D004D49434584
:109F1000206F6E2F6F6666202D2073656E64206340
:109F20006F6465642061707273206D65737361671F
:109F3000657320696E206D69632D6520666F726D93
:109F400061740A0D0000000054454C20286F7220F7
:109F500054454C454D4554525929206F6E2F6F661C
:109F600066202D2073656E642074656C656D657464
:109F70007279206461746120696E2061707273204F
:109F80006D657373616765730A0D0000415052532C
:109F90005F4556455259206E202D2074696D65200D
:109FA0006265747765656E2061707273206D65738C
:109FB0007361676573206973206E207820686F6C09
:109FC000646F66660A0D00005441494C5F45564572
:109FD0005259206E202D2074696D6520626574775A
:109FE00065656E207461696C20746578742069738E
:109FF000206E207820617072732074696D650A0D7F
:10A0000000000000545445585420737472696E6700
:10A01000202D207461696C20746578742028757017
:10A0200020746F2031303020636861726163746521
:10A030007273290A0D000000415052535F5542418E
:10A0400054206F6E2F6F6666202D2073656E64201E
:10A050006261747465727920766F6C7461676520D3
:10A06000696E20617072732074746578740A0D00D3
:10A0700057574C206F6E2F6F6666202D2073656ECC
:10A08000642077776C6F6361746F72206D65737392
:10A09000616765730A0D00004C57574C206F6E2F97
:10A0A0006F6666202D2073656E64206C6F6E67206E
:10A0B00028313020636861722E292077776C6F63B6
:10A0C00061746F72206D657373616765730A0D004B
:10A0D00043574944206F6E2F6F6666202D207365AD
:10A0E0006E642063776964206D657373616765735F
:10A0F0000A0D0000435749445F4556455259206EAA
:10A10000202D2074696D65206265747765656E2009
:10A110006377206D65737361676573206973206E63
:10A12000207820686F6C646F66660A0D000000007E
:10A1300043575F5350454544206E206E203D2063B9
:10A140007720737065656420696E2077706D0A0DE5
:10A15000000000004947415445206F6E2F6F66662E
:10A16000202D206D6F6E69746F72696E672061704B
:10A170007273206D65737361676520766961205520
:10A180004152540A0D0000004E4D4541206F6E2F84
:10A190006F6666202D2073656E64204D4E4541200C
:10A1A0004750474741206D65737361676520766945
:10A1B0006120554152540A0D00000000444953509B
:10A1C000202D2073686F7720706172616D657465F2
:10A1D00072730A0D00000000534552434F4D206E2C
:10A1E000202D207370656564206F66207365726929
:10A1F000616C20636F6D6D756E69636174696F6EFC
:10A2000020706F727420286E203D2033303020740F
:10A210006F20313135323030290A0D004445462057
:10A220002D207365742064656661756C7420766199
:10A230006C7565730A0D000053415645202D20733F
:10A2400061766520706172616D65746572732074EA
:10A250006F20666C6173680A0D000000444953501A
:10A26000000000000A0D43757272656E7420706103
:10A2700072616D65746572733A0A0D0A0000000020
:10A28000425554544F4E3A20000000004C45445370
:10A290003A200000504F5745523A2025640A0D00DD
:10A2A00041505253204652455155454E43593A204C
:10A2B000256C64206B487A0A0D00000052545459F2
:10A2C000204652455155454E43593A20256C64204D
:10A2D0006B487A0A0D000000525454593A2000008D
:10A2E000525454592043414C4C5349474E3A200054
:10A2F0000A0D484F4C4F46463A20256C6420730A9D
:10A300000D000000525454592042415544524154CA
:10A31000453A2025642042640A0D000052545459E5
:10A320002053484946543A2000000000323730009C
:10A3300020487A0A0D525454592044415441204235
:10A340004954533A2025640A0D000000353430008A
:10A350003831300031303830000000005254545948
:10A360002053544F5020424954533A2025640A0D3B
:10A370000000000054454D50455241545552453A55
:10A3800020000000414C5449545544453A200000F7
:10A3900053504545443A2000434F555253453A20C7
:10A3A000000000004241545445525920564F4C542D
:10A3B0004147453A2000000053595354454D20561B
:10A3C0004F4C544147453A2000000000534154454A
:10A3D0004C4C495445533A20000000004150525320
:10A3E0003A200000415052532043414C4C534947BE
:10A3F0004E3A20002D25640A0D00000052454C41C4
:10A40000593A200054582044454C41593A2025647B
:10A410000A0D000053594D424F4C3A2000000000F5
:10A420000A0D415052532045564552593A20256451
:10A430000A0D0000535045454420616E6420434F8F
:10A44000555253453A2000004D49432D453A2000CE
:10A4500054454C454D455452593A20005441494CBD
:10A4600020544558542045564552593A2025640AEF
:10A470000D0000005441494C20544558543A2000E6
:10A48000415052535F554241543A200057574C3A7D
:10A49000200000004C57574C3A20000043574944D5
:10A4A0003A20000043574944204D45535341474506
:10A4B0003A2000000A0D4357204944207370656517
:10A4C000643A2025642057504D0A0D004357204917
:10A4D000442045564552593A2025640A0D00000093
:10A4E00049474154453A20004E4D45413A2000002D
:10A4F000554152543A20256420382D4E2D310A0DF5
:10A50000000000005454455854000000546F6F2060
:10A510006D616E7920636861726163746572730A3C
:10A520000D636D643E0000005254545943414C4C3D
:10A53000000000004150525343414C4C00000000C9
:10A540004F6E6C79206C65747465727320616E64F3
:10A55000206E756D626572732061726520616C6C2E
:10A560006F7765640A0D636D643E0000435749448C
:10A570004D4553530000000052454C415900000026
:10A58000504F5745520000003020746F2037206133
:10A590006C6C6F776564206F6E6C790A0D636D6407
:10A5A0003E0000004241554400000000415052531B
:10A5B000465251004672657175656E6379206F75FC
:10A5C00074206F662072616E67650A0D636D643E6C
:10A5D000000000005254545946525100484F4C4418
:10A5E0004F464600444249545300000037206F72E2
:10A5F000203820616C6C6F776564206F6E6C790A0F
:10A600000D636D643E000000534249545300000046
:10A6100031206F72203220616C6C6F776564206F1F
:10A620006E6C790A0D636D643E0000005348494624
:10A6300054000000312C322C332C34206F72203225
:10A6400037302C3534302C3831302C313038302004
:10A65000616C6C6F776564206F6E6C790A0D636D49
:10A66000643E000054584400313020746F2035306F
:10A670003020616C6C6F776564206F6E6C790A0DA9
:10A68000636D643E000000004355540033303030A9
:10A6900020746F20353030303020616C6C6F7765FE
:10A6A00064206F6E6C790A0D636D643E00000000DB
:10A6B00053534944000000006F6E6C792066726F3E
:10A6C0006D203020746F2031350A0D636D643E00BB
:10A6D000534552434F4D000033303020746F2031CA
:10A6E000313532303020616C6C6F776564206F6E6D
:10A6F0006C790A0D636D643E0000000053594D42B1
:10A700004F4C000043686172616374657273206925
:10A7100073206E6F742076616C69640A0D636D64DA
:10A720003E000000425554544F4E00004C454453E7
:10A730000000000052545459000000004150525390
:10A7400000000000435749440000000057574C00E8
:10A750004C57574C00000000494741544500000049
:10A760004E4D45410000000054454D500000000092
:10A7700054454D504552455455524500535045455A
:10A7800044000000434F555253450000414C5400D3
:10A79000414C544954554445000000005542415431
:10A7A00000000000415052535F55424154000000E8
:10A7B00053415400534154454C4C495445530000B7
:10A7C00055535953000000005350454544434F55DD
:10A7D0005253450054454C0054454C454D45545248
:10A7E000590000004D4943450000000041505253BC
:10A7F0005F455645525900005441494C5F45564506
:10A800005259000043575F53504545440000000033
:10A81000435749445F4556455259000043575F45E9
:10A820005645525900000000444546004D6F64698A
:10A83000666965642052532D34312062616C6C6FFF
:10A840006F6E20747261636B657200004E4F4341FE
:10A850004C4C000054455354204445204E4F434136
:10A860004C4C2F414D0000002F4F000053415645E6
:10A8700000000000506172616D6574657273207331
:10A8800061766564204F4B0A0D636D643E000000E5
:10A8900043616E6E6F7420736176652070617261C2
:10A8A0006D65746572730A0D636D643E000000008F
:10A8B0003F636D643E00000073616A293F3E3C388F
:10A8C00030202123272F47550131354C0106111522
:10A8D0000902140B10041E0D1207050F161B0A089F
:10A8E000030C180E191D13002D000000242424242D
:10A8F00025732C25642C2530327525303275253092
:10A9000032752C257325642E2530356C642C257307
:10A9100025642E2530356C640000000025732C253D
:10A920006C64000025732C25642E25640000000053
:10A9300025732C256400000025732C25642E2530FA
:10A940003264000025732A253034580A00000000C4
:10A950002447504747412C25303275253032752524
:10A960003032752E3030302C253032642530326450
:10A970002E253034752C25632C2530336425303258
:10A98000642E253034752C25632C25642C25642CED
:10A99000312E362C256C642E253031642C4D2C3410
:10A9A000312E342C4D2C312E382C303030302A00C2
:10A9B0002573253032580A0D0000000024475052FC
:10A9C0004D432C2530327525303275253032752EA9
:10A9D0003030302C25632C25303264253032642E03
:10A9E000253034752C25632C2530336425303264B2
:10A9F0002E253034752C25632C25642E25303264A9
:10AA00002C25642E253032642C25303264253032DA
:10AA100064253032642C2C2C442A000025732D250B
:10AA2000643E4150424352532C57494445312D31E5
:10AA30002C57494445322D323A2125303264253095
:10AA400032642E2530327525632563253033642525
:10AA50003032752E25303275256325632F413D2513
:10AA600030366C640A0D0000256325632563256379
:10AA700025632563000000006025632563256325A9
:10AA80006325632563256325630000002573256323
:10AA9000256325637D000000257327253032782546
:10AAA00030327825303278253032782530327800CF
:10AAB0002125303264253032642E253032752563ED
:10AAC000256325303364253032752E2530327525C7
:10AAD0006325630025732F413D2530366C640000EB
:10AAE0002573253033642F253033640025732F50B0
:10AAF0002564532564542564562564002573205528
:10AB00006261743D25642E25303264562074656D73
:10AB1000703D25644300000025732025730000006C
:10AB2000BC89D897B2D29C3C33A7A8D523F6493923
:10AB30003DA7F444FD0FA5329D978CCF08BA5B2545
:10AB4000436FAC642806681135000000CEFBFFFFA0
:10AB5000CB03000001000000000000006E660069E9
:10AB60006E69747900616E0034000000CEFBFFFF57
:10AB7000CB03000001000000000000004300504F24
:10AB8000534958002E000000000000000000F03F74
:10AB900000000000000024400000000000005940B8
:10ABA0000000000000408F40000000000088C3400B
:10ABB00000000000006AF8400000000080842E4180
:10ABC00000000000D01263410000000084D79741CC
:10ABD0000000000065CDCD41000000205FA00242D2
:10ABE000000000E876483742000000A2941A6D4247
:10ABF000000040E59C30A2420000901EC4BCD6423A
:10AC000000003426F56B0C430080E03779C34143E4
:10AC100000A0D8855734764300C84E676DC1AB435A
:10AC2000003D9160E458E143408CB5781DAF154478
:10AC300050EFE2D6E41A4B4492D54D06CFF0804453
:10AC4000F64AE1C7022DB544B49DD9794378EA4468
:10AC50000080E03779C34143176E05B5B5B8934618
:10AC6000F5F93FE9034F384D321D30F94877825AE4
:10AC70003CBF737FDD4F1575050000001900000013
:10AC80007D000000232D302B2000686C4C00656691
:10AC9000674546470030313233343536373839412D
:10ACA0004243444546003031323334353637383943
:10ACB000616263646566000020202020202020203F
:10ACC000202828282828202020202020202020205C
:10ACD000202020202020202088101010101010107C
:10ACE00010101010101010100404040404040404C4
:10ACF0000404101010101010104141414141410155
:10AD00000101010101010101010101010101010133
:10AD10000101011010101010104242424242420242
:10AD20000202020202020202020202020202020203
:10AD300002020210101010200000000000000000AD
:10AD40000000000000000000000000000000000003
:10AD500000000000000000000000000000000000F3
:10AD600000000000000000000000000000000000E3
:10AD700000000000000000000000000000000000D3
:10AD800000000000000000000000000000000000C3
:10AD900000000000000000000000000000000000B3
:10ADA00000000000000000000000000000000000A3
:08ADB00000000000000000009B
:10ADB8003F1C0181B0B003AF0000000008B1018161
:10ADC800B0B000840000000008B10181B0B0008478
:04ADD8000000000077
:10ADDC00EC90FF7FB0AA05801491FF7F010000006A
:10ADEC009C91FF7FC8FFFF7FFC96FF7F0100000056
:10ADFC00D8A2FF7FAD08B180A0A3FF7FA908B180C6
:10AE0C00D8A3FF7FB0B0A88010A4FF7FAB08B1809F
:10AE1C0054A4FF7F01000000E8A4FF7FB0B0AE8017
:10AE2C0040A5FF7F0100000064A5FF7FB0B0A880A3
:10AE3C008CA5FF7FA908B180B8A5FF7FB0B0AA8010
:10AE4C00D8A5FF7F0100000084A6FF7FB0A9048075
:10AE5C00B0A6FF7F010000003CB6FF7FB0A90280C6
:10AE6C00D8B6FF7FB0B0A88028B7FF7F01000000E4
:10AE7C0034B7FF7FB0B0AA806CB7FF7FAE71B280E1
:10AE8C0038B8FF7F0100000034B8FF7FAB3F38803B
:10AE9C008CB8FF7F0100000098B8FF7FB0B0AA808B
:10AEAC00D4B8FF7F010000008CB9FF7FAB0EB280DD
:10AEBC00F4B9FF7FB0AF0A80C8BCFF7F010000006F
:10AECC00CCBCFF7FAB3F048014BFFF7F01000000B0
:10AEDC00F0C0FF7F0084048004C1FF7F01000000EC
:10AEEC0000C1FF7FB0AD04809CC3FF7FB0A803807E
:10AEFC00BCC3FF7FC4FEFF7FC0C3FF7FC8FEFF7FC4
:08AF0C00CCC3FF7F010000002F
:10AF14000100000001000100983A000064000000F4
:10AF2400020702000000010100010001040000000A
:10AF340001024D6F6469666965642052532D343192
:10AF44002062616C6C6F6F6E20747261636B6572EA
:10AF540000000000000000000000000000000000ED
:10AF640000000000000000000000000000000000DD
:10AF740000000000000000000000000000000000CD
:10AF840000000000000000000000000000000000BD
:10AF94000000000000000000013C054E4F43414CFE
:10AFA4004C000000004E4F43414C4C000000000098
:10AFB400000000000054455354204445204E4F43A4
:10AFC400414C4C2F414D00000000000000000000E7
:10AFD4000000002F4F0000000B00000074990600D1
:10AFE40044A10600070000006000000019000000F2
:10AFF400000000003075000057494445312D3100F0
:10B00400000000000000000000000000000000003C
:10B0140000000000000000000A000000AB1264649D
:10B02400010300000A0D53544D33322043572C20A2
:10B034005254545920262041505253207472616353
:10B044006B657220762E20322E35206279204F4D8A
:10B054003342432E2E2E200A0D636D643E000101FF
:10B064004E000000190000004150424352530000BA
:10B0740000000000000000000100000000000000CB
:10B084000102030401020304060708090204060876
:10B0940000000000000000000000000000000000AC
:10B0A400000000000000000000000000000000009C
:10B0B400000000000000000000000000000000008C
:10B0C400000000000000000000000000000000007C
:10B0D400000000000000000000000000000000006C
:10B0E400000000000000000000000000000000005C
:10B0F4008001002043000000000000000000000068
:10B10400000000000000000000000000000000003B
:10B1140000000000430000000000000000000000E8
:10B12400000000000000000000000000000000001B
:10B1340000000000430000000000000000000000C8
:10B1440000000000000000000000000000000000FB
:10B1540000000000430000000000000000000000A8
:10B1640000000000000000000000000000000000DB
:10B174000000000043000000000000000000000088
:10B1840000000000000000000000000000000000BB
:10B194000000000043000000000000000000000068
:10B1A400000000000000000000000000000000009B
:10B1B4000000000043000000000000000000000048
:10B1C400000000000000000000000000000000007B
:10B1D40000000000DB960008ED8700080000000076
:10B1E400B7AC000884AB000889AC000889AC00083F
:10B1F40089AC000889AC000889AC000889AC000857
:10B2040089AC000889AC000889AC0008FFFFFFFF87
:10B21400FFFFFFFFFFFFFFFFFFFF0000010041539F
:10B224004349490000000000000000000000000045
:10B234000000000000000000000000000000415376
:10B244004349490000000000000000000000000025
:10B2540000000000000000000000000000000000EA
:0400000508000000EF
:00000001FF
